:020000040800F2
:10000000B0B80020A90200081F440008C13D000844
:100010001D440008A1080008F55000080000000079
:10002000000000000000000000000000E5010008E2
:10003000AB0900080000000041020008E947000881
:10004000C3020008C3020008C3020008C30200087C
:10005000C3020008C3020008C3020008C30200086C
:10006000C3020008C3020008C3020008C30200085C
:10007000C3020008C3020008C3020008C30200084C
:10008000C3020008C3020008C3020008C30200083C
:10009000C3020008C3020008C3020008C30200082C
:1000A000C3020008C3020008C3020008C30200081C
:1000B000C3020008C3020008C3020008C30200080C
:1000C000C3020008C3020008C3020008C3020008FC
:1000D000C3020008C3020008C3020008C3020008EC
:1000E000C3020008C3020008C3020008C3020008DC
:1000F000C3020008C3020008C3020008C3020008CC
:10010000C3020008C3020008C3020008C3020008BB
:10011000C3020008C302000835490008C3020008F2
:10012000C3020008C3020008C3020008C30200089B
:10013000C3020008C3020008C3020008C30200088B
:10014000C3020008C3020008C3020008C30200087B
:10015000C3020008C3020008C3020008C30200086B
:10016000C3020008C3020008C3020008C30200085B
:10017000C3020008C3020008C30200080000000018
:10018000C3020008C3020008C3020008C30200083B
:10019000C3020008C3020008C3020008C30200082B
:1001A00041420008C30200080D090008C30200080C
:1001B000C3020008C3020008C3020008C30200080B
:1001C000C3020008C3020008DFF814D000F040F9B1
:1001D00000F0D2F80048004721D8000800F017F9D5
:1001E000B0B800202D4B19680868B0E8F04F80F3D4
:1001F0000988BFF36F8F4FF0000080F311887047BC
:100200000000000008480068006880F308884FF08C
:10021000000080F3148862B661B6BFF34F8FBFF35E
:100220006F8F00DF00BF00BF08ED00E0DFF80C00BB
:10023000016841F470010160704700BF88ED00E083
:10024000EFF30980BFF36F8F144B1A681EF0100F85
:1002500008BF20ED108A20E9F04F106009B44FF07C
:10026000500072B680F31188BFF34F8FBFF36F8FCA
:1002700062B60EF031F84FF0000080F3118809BC2F
:1002800019680868B0E8F04F1EF0100F08BFB0EC16
:10029000108A80F30988BFF36F8F70473800002001
:1002A000EFF3058070470000064880470648004786
:1002B000FEE7FEE7FEE7FEE7FEE7FEE7FEE7FEE716
:1002C000FEE7FEE7E1480008C90100082DE9F05FFC
:1002D0000546002092469B468846064681464024B5
:1002E0001BE0284641464746224600F07BF853462D
:1002F0005A46C01A914110D311461846224600F0C2
:1003000062F82D1A67EB01084F46224601200021B2
:1003100000F059F817EB00094E41201EA4F101042A
:10032000DFDC484631462A464346BDE8F09F40EAB6
:1003300001039B0703D009E008C9121F08C0042A63
:10034000FAD203E011F8013B00F8013B521EF9D24A
:100350007047D2B201E000F8012B491EFBD2704772
:100360000022F6E710B513460A4604461946FFF781
:10037000F0FF204610BD000070B5054C054D03E0B0
:10038000206820448047241DAC42F9D170BD000094
:10039000C4900508D09005082DE9F04107461546A0
:1003A0000E4610200DF07CFA04000AD06760C4E904
:1003B000026500F027F80168216004600020BDE8B4
:1003C000F0810120FBE7202A04DB203A00FA02F149
:1003D000002070479140C2F1200320FA03F3194333
:1003E00090407047202A04DB203A21FA02F00021D5
:1003F000704721FA02F3D040C2F120029140084335
:1004000019467047004870479001002070472DE959
:10041000F0410646FFF7F6FF8046454613E016B169
:10042000E068B0420ED120682860D4E90101D8F814
:100430000070884720460DF063F8D8F80000B842F5
:10044000EBD100E025462C68002CE8D1BDE8F08116
:10045000064C074D06E0E06840F0010394E8070011
:1004600098471034AC42F6D3FFF7B2FE84900508EB
:10047000A4900508704770B58C1810F8015B15F052
:10048000070301D110F8013B2A1106D110F8012B06
:1004900003E010F8016B01F8016B5B1EF9D12B072B
:1004A00005D40023521E0DD401F8013BFAE710F8E1
:1004B000013BCB1A921C03E013F8015B01F8015BCE
:1004C000521EF9D5A142D8D3002070BD70B590B0AE
:1004D0004FF440640020A20307944FF480760B9001
:1004E000EB25009571010391CDE908020C900A23D8
:1004F0000D900EAA0F9069460E900548CDE905367D
:1005000001F00CFF002800D0012010B070BD0000E9
:10051000B491002070B5194C17482060204601F0B6
:1005200080FEE0B90021204600F02AF84FF08071EB
:10053000002091FAA1F14FF4A066B1FA81F1491EB1
:10054000C4E905600423E0611025206201222046F1
:10055000C4E90351C4E9012301F080FE08B1012080
:1005600070BD064804F097F820B9044804F04EF82E
:100570000028F5D0042070BD001000A0B491002028
:10058000414870B586B0016841F002010160006821
:1005900000F0020005903C482038016841F002015B
:1005A0000160016821F002010160374808380168E4
:1005B00041F002010160016801F00201059101684A
:1005C00041F002010160016801F00201059101683A
:1005D00041F008010160016801F00801059101681E
:1005E00041F008010160016801F00801059101680E
:1005F00041F010010160016801F0100105910168EE
:1006000041F0080101600068022101221F4E00F044
:1006100008000590402003230A248DE81F00694646
:10062000304600F007FE00206946042500950924A5
:1006300004940290304600F0FDFD154E68026946B4
:1006400004940090304600F0F5FDA8026946049439
:100650000090304600F0EEFD0E4869460095049487
:1006600000F0E8FDE802694604940090304600F08E
:10067000E1FD00220F215C2001F08CFC5C2001F0E8
:100680007CFC06B070BD0000383802400004024017
:10069000000C0240001002402DE9F04F95B0584D7B
:1006A0004FF0000B06465C46CDF844B0CDF848B09C
:1006B000CDF84CB0A8680169687888470028307088
:1006C0007ED000240DF1100A0DF1380908AF8BE03F
:1006D000A8680DF12C080AEB440208EB44014369B9
:1006E000687898472878012807D138F8142029F825
:1006F00014203AF8141027F81410810705D538F89B
:100700001410C1F5805129F81410410705D53AF8A5
:100710001410C1F5805127F81410000707D538F8D8
:10072000140027F814003AF8141029F81410DFF810
:10073000D48039F8140058F82410884201D9421A9C
:1007400000E00A1A2F491FFA82FC37F814201431EE
:1007500051F824309A4201D9D31A00E09B1A9BB277
:100760006344052B03D948F8240041F8242095F868
:1007700001C0BCF1700F26D058F8242006EB4400CD
:100780006B885A43120B428051F82410AA885143B7
:10079000090B818113A8214612AB009011AA604673
:1007A0000CF044FF301911998175129980F82010CE
:1007B000139979B101290FD0022910D0032900E043
:1007C0001AE010D10DE006EB4401488037F8140020
:1007D0008881DFE7012100E00221C17603E00321E7
:1007E000FBE780F81BB0641C3078A0423FF670AF86
:1007F000304600F009F8044615B02046BDE8F08FF9
:10080000D800002000920020F8B5044614480026C5
:1008100069460096354640780CF0F8FE0098182896
:1008200016D005DC68B110280DD0142806D10CE0D4
:100830001C280FD040280FD049280FD0012528466A
:10084000F8BDA662FBE7012000E00220A062F6E707
:100850000320FBE70420F9E70520F7E70620F5E78A
:10086000D800002070B50C4C00260C4D6080702024
:10087000A18029688847696870208847512802D07C
:100880000326304670BDA56070206070082121707D
:10089000E9688847F5E70000D8000020E400002060
:1008A000FEE70000144A10B5136823F0010313603B
:1008B000124A12680123AAB9114A12684FF08A44F9
:1008C000B4EB025F0ED10F4A13601368002BFCD10A
:1008D0000C4A083A10601068884201D0002010BD10
:1008E000012010BD084A93609368002BFCD1106072
:1008F00010688842F4D0F1E7002000E0002004E016
:100900000010005C084C025800300240014800F022
:1009100069BA00003C0F0020F0B5059C44EA03458D
:1009200003685C6C04F040442C435C640368DA6345
:100930004268B2F5403F02D00068C160F0BD01F4EA
:100940007F42856801F47F04224301F07F4301F474
:100950007F0701F47F46CCB2BDB1012D16D001F462
:100960007F02C1F3C401D20C022D11D0032D14D08B
:10097000320B390D15011A0F45EA0123210943EA0B
:1009800002320A4300688263F0BD1A432243F9E74A
:10099000B30A5B0143EAC222F3E7F40ADB0F640106
:1009A00044EA822242EAC332EBE770477047F0B56F
:1009B000D1E90125D1E90343D1E905762A43D1F8EC
:1009C00000C044EA0304D1E9073542EA0402496A57
:1009D00042EA0702BCF1010F42EA060208D00468AD
:1009E0001A432A430A43E30BDB031A4302600BE07A
:1009F000066844682B4326F4F84529430B430360FB
:100A00006FF30E04224342600020F0BD426942EAC7
:100A1000410141610020704738B591E81C00C96868
:100A20006FF01F051A4305EB441444EA41210A43C1
:100A300000920261002038BD2DE9F043914691E813
:100A40001C006FF00F05521E2E0105EB03131A4315
:100A50000B7E06EB04268C8A2F034FEA054C0D8A89
:100A600032434FF07F4808EB0366CB68B9F1010FC2
:100A700007EB05450CEB04540CD081683F1107EBE4
:100A800003331A432A432243324301F070410A439D
:100A9000826011E08168DFF828C0C7681B03A3F5F6
:100AA000805323432A4301EA0C0132430B43836002
:100AB00007F070442243C2600020BDE8F0830000CC
:100AC000FF0F0FFFF0B50126044600201E2301E0B2
:100AD0005B1E05D303F01F0706FA07F50D42F7D09A
:100AE00072B1082A0AD0102A05D0182A01D1072B82
:100AF00006D30120F0BD082BFBD201E0102BF8D269
:100B00002368596121688B6823F0180313438B60B5
:100B1000F0BD000010B5040010D0607F20B90020A7
:100B20002077204600F032F821790220607739B131
:100B3000D4E902122046FFF7C5FF48B1012010BDDD
:100B40002168114848612068816821F0180181609E
:100B50006079A0B121682069086101222068636979
:100B6000816821F06001194381602068A369816870
:100B700021F08001194381606277002010BD216857
:100B80004FF0FF30E8E70000B71DC10408B500686A
:100B90000649884208D10648016841F48051016045
:100BA000006800F48050009008BD00000030024052
:100BB000303802402DE9F04104460068016821F018
:100BC0000501091D016000F027FC002605464FF4D1
:100BD0007A770FE000F020FC401BB8420AD9E16BA5
:100BE000032084F8386041F02001E16384F8390083
:100BF000BDE8F08120680068C007EBD120680121C2
:100C0000026822F40C52026084F83910002084F843
:100C10003860EDE7F8B504461D46DDE9063094F886
:100C20003860012E18D0012784F83870022684F825
:100C30003960266872612A4600902046FFF76CFEF4
:100C40002068016841F40C5101602068016841F09E
:100C5000010101600020F8BD0220F8BD70470000CE
:100C60002DE9F041044600680129016800F12405DE
:100C700041F00401016001D125681C3500F0CCFB76
:100C8000002706464FF47A7810E000BF00F0C4FB5E
:100C9000801B40450AD9E16B032084F8387041F08D
:100CA0002001E16384F83900BDE8F08128688006FE
:100CB000ECD420680121026822F46452026084F8B6
:100CC0003910002084F83870EEE7000070B590F815
:100CD0003820012A23D0244C012680F838600223D2
:100CE00000EB011280F83930158CD36918320A2BC9
:100CF00043EA054515D0092B13D0137B45EA03635E
:100D0000056899B1E969A1431943E961016813686C
:100D10000B6151680A291BD0092919D01DE0022056
:100D200070BDD36803F07F432B43E9E7696AA143B1
:100D300019436962016813688B6151680A2901D0FF
:100D400009290AD1D168026821F07F41916204E04B
:100D5000D168026821F07F411162002180F839607A
:100D600080F83810084670BD0F0003FF70B504000E
:100D700011D01B480068000217D520680168C90718
:100D800003D02046FFF716FF04E0416A890604D528
:100D9000002106E048B1012070BDC069800604D57D
:100DA00001212046FFF75CFFF4E7216800253F2082
:100DB0000D60216888602068056120688561206871
:100DC000C5612068456220684563204600F0C6F88A
:100DD000E56384F83950002084F8385070BD000075
:100DE000303802402DE9F0470446006800274FF0F4
:100DF00004084FF0010946680568F10714D0E905B9
:100E000012D5036823F480730360E06B40F00100A7
:100E1000E0632068C0F8089084F8398084F838705E
:100E2000616909B120468847B00615D5A80413D5D5
:100E300020682022036823F4005303602068826046
:100E4000E06B40F00200E06384F8398084F8387089
:100E5000616909B120468847300715D5280513D5A3
:100E600020680822036823F400630360206882601E
:100E7000E06B40F00400E06384F8398084F8387057
:100E8000616909B12046884770070CD568050AD505
:100E90002068026822F4806202602068C0F808803E
:100EA000204600F05AF8B00713D5A80511D52068E0
:100EB0000222036823F40073036020688260E06B01
:100EC000E06384F8399084F83870216909B12046CC
:100ED0008847F00612D5E80410D52068016821F48F
:100EE00080510160226810219160E16BE16384F818
:100EF0003990204684F83870FFF7B0FEBDE8F087DF
:100F000070B5040004D094F83900002510B106E053
:100F1000012070BD204684F8385000F031F80220DE
:100F200084F83900D4E900030121026822F4403238
:100F30001A4302602068A368426B22F007021A433A
:100F400042632068E368026C6FF30D021A43026487
:100F5000E56384F83910002070BD704700680649C9
:100F6000884207D10548016821F4000101605A2038
:100F700000F0F2BF7047000000B00240303802407D
:100F800008B500680B49884212D10B48016841F44A
:100F90000001016000680022052100F400000090BB
:100FA0005A2000F0F7FFBDE808405A2000F0E5BFE6
:100FB00008BD000000B0024030380240F8B50446D9
:100FC000069894F83850012D15D0012684F8386021
:100FD000022584F8395000902046FFF79DFC2068D8
:100FE000016841F40C5101602068016841F0010181
:100FF00001600020F8BD0220F8BD2DE9F041876DA9
:10100000044600F009FA064694F835000025022847
:1010100006D080206065012084F83450BDE8F0815E
:101020002068016821F0160101602068416921F003
:1010300080014161206C08B9A06C20B12068016872
:1010400021F0080101602068016821F001010160C0
:101050000CE000F0E1F9801B052807D9202161652B
:10106000032084F8345084F83500D7E720680068FE
:10107000C007EED194F85C203F2001219040B86079
:1010800084F8345084F835100020C7E770B5044662
:1010900000F0C2F90546601C02D004480078044400
:1010A00000F0BAF9401BA042FAD370BD280000201E
:1010B0002DE9F04FDFF84CE100224FF001094FF02D
:1010C0000F0A00BF09FA02F401EA0403A3427CD12B
:1010D00022F0030676449707D6F808C83F0FDFF8DA
:1010E00028810AFA07FB40450BEA0C0502D14FF0B4
:1010F000000C40E0DFF814C1604502D14FF0010C54
:1011000039E0DFF80CC1604502D14FF0020C32E04B
:10111000DFF800C1604502D14FF0030C2BE0DFF88F
:10112000F8C0604502D14FF0040C24E0DFF8ECC0B9
:10113000604502D14FF0050C1DE0DFF8E4C06045CA
:1011400002D14FF0060C16E0DFF8D8C0604502D19E
:101150004FF0070C0FE0DFF8D0C0604502D14FF030
:10116000080C08E0DFF8C4C0604502D14FF0090C5C
:1011700001E04FF00A0C0CFA07FCAC451DD1D6F883
:101180000888DFF8ACC028EA0B08C6F808880CF11C
:101190000405DCF800802E1D371D28EA0308CCF872
:1011A0000080D5F800C02CEA030CC5F800C03568F3
:1011B0009D4335603D689D433D6003230768D50826
:1011C0004FEA42084FEA427C00E015E04FEADC6C4F
:1011D00003FA08F39F4307600AFA0CF600EB850553
:1011E0002F6AB7432F6285689D4385604568A54394
:1011F0004560C4689C43C460521C102AFFF462AF6F
:10120000BDE8F08F003001400000024000040240C1
:1012100000080240000C024000100240001402408E
:1012200000180240001C024000200240002402403E
:10123000003C01402DE9F84FDFF89CE100224FF01F
:1012400001084FF0030B4FF00F0A00BF0B6808FABC
:1012500002F42340A34271D14D68022D01D0122D1A
:101260000FD1D5080E69570700EB8505A9462D6AF1
:10127000FF0E0AFA07FCBE4025EA0C052E43C9F80A
:1012800020600F79550006680BFA05FC07F003078C
:1012900026EA0C06AF40374307604E68012E05D0A2
:1012A000022E03D0112E01D0122E0ED18668CF68E7
:1012B00026EA0C06AF403743876046680F79A6439D
:1012C000C7F30017974037434760C4688E6824EA25
:1012D0000C04AE402643C6604C68E40075D53F4C14
:1012E000256845F480452560246822F003069507AB
:1012F00004F4804400943A4C2D0F2644D6F8084854
:10130000DFF8E0C00AFA05F7604524EA070401D1D6
:1013100000272EE0344FB84201D1012729E0334F96
:10132000B84201D1022724E0314FB84201D103274E
:101330001FE0304FB84202D104271AE045E02E4F9B
:10134000B84201D1052714E02C4FB84201D106273D
:101350000FE02B4FB84201D107270AE0294FB842CE
:1013600001D1082705E0284FB84201D1092700E044
:101370000A27AF4027437546C6F808784E68DEF85E
:101380000040F60324EA030400D51C43124E2C60EF
:10139000361D4D683468AD0324EA030400D51C43B0
:1013A0000D4F346008374D683C68ED0224EA0304B1
:1013B00000D51C43084D3C600C354E682C68B602C5
:1013C00024EA030400D51C432C60521C102AFFF4AD
:1013D0003DAFBDE8F88F0000003C014044380240BA
:1013E00000300140000002400004024000080240BA
:1013F000000C02400010024000140240001802409D
:10140000001C024000200240002402400AB1816119
:1014100070470904FBE7000001488068704700003E
:101420002800002030B590F84120202A24D190F8DF
:101430004020012A20D0012380F84030242280F867
:101440004120202300240268156825F0010515605D
:101450000268156825F480551560026815680D430B
:10146000156001680A6842F001020A6080F84130A4
:1014700080F84040002030BD022030BD30B590F8EB
:101480004120202A22D190F84020012A1ED0012399
:1014900080F84030242280F8412020240025026872
:1014A000136823F0010313600268136823F4706368
:1014B00043EA0121116001680A6842F001020A60F2
:1014C00080F8414080F84050002030BD022030BDFF
:1014D00010B5040014D0242084F84100206801686D
:1014E00021F001010160204600F0CAF9002060648B
:1014F00084F84100206384F8420084F8400010BD65
:10150000012010BD90F841007047000070B5040044
:1015100004D094F84100002510B106E0012070BD10
:10152000204684F8405000F0C1F9242084F841009E
:101530002068016821F001010160D4E9001020F069
:10154000706008612068816821F400418160E06872
:1015500021680128A06806D040F404408860E06853
:10156000022803D006E040F40040F7E721684FF47A
:101570000060486020212068114A4368134343609B
:101580002068C26822F40042C26054F8106B0DCC8F
:10159000104340EA0320F06054F81C3CD4E90002F8
:1015A0001043186054F81C0D026842F001020260FA
:1015B000656484F84110256384F84250002070BDB2
:1015C000008000022DE9FF4F83B0044690F84100EF
:1015D0009A469346DDE91087DDF84890202874D1BB
:1015E0005FEA080014D09FB194F8400001286CD045
:1015F000012084F84000FFF70FFF0122064619235F
:101600000090D103204602F0ABFC002871D103E02A
:101610004FF4007060646CE00025C4F8248022213F
:1016200084F84110402084F8420065646785534681
:1016300065635A4604992046CDE9009602F016FCEF
:1016400010B184F8405054E0618DFF2734484FF0CA
:101650008078FF294FF0007A04D927853A4643461F
:10166000009005E0618D53462185009094F8282074
:101670002046049902F05EFC00224B4604212046DD
:10168000009602F06DFCA0BB2068616A406A087099
:10169000606A401C6062208D401E81B22185608D91
:1016A000401E6085608DD8B1D1B900224B468021A3
:1016B0002046009602F054FCD8B9608DFF2805D969
:1016C00027853A464346009506E026E0608D53465E
:1016D0002085009594F828202046049902F02AFCE1
:1016E000608D0028C8D132464946204602F065FC8C
:1016F00018B1012007B0BDE8F08F21682020094A09
:10170000C86121684B6813404B6084F8410084F83D
:101710004250002084F84050ECE70220EAE7000045
:101720000024008000E800FE2DE9FF4F83B004464E
:1017300090F841009A469346DDE91087DDF848901D
:10174000202871D15FEA080014D09FB194F84000BE
:10175000012869D0012084F84000FFF75DFE0122D6
:10176000064619230090D103204602F0F9FB002819
:101770006ED103E04FF40070606469E00025C4F8A6
:101780002480212184F84110402084F842006564BF
:101790006785534665635A4604992046CDE900960D
:1017A00002F096FB10B184F8405051E0608DFF27A5
:1017B0004FF08078FF284FF0007A04D927853A4609
:1017C0004346009505E0608D53462085009594F8CA
:1017D00028202046049902F0ADFB324649462046B7
:1017E00002F012FCA0BB606A216800788862606A1F
:1017F000401C6062608D401E6085208D401E80B25E
:101800002085618DD9B1D0B900224B468021204678
:10181000009602F0A5FBD8B9608DFF2805D9278571
:101820003A464346009506E026E0608D5346208503
:10183000009594F828202046049902F07BFB608DE7
:101840000028CAD132464946204602F0B6FB18B1FC
:10185000012007B0BDE8F08F20682021074AC16150
:10186000206843681340436084F8411084F8425074
:10187000002084F84050ECE70220EAE700E800FE90
:1018800000680749884209D10648016821F400012F
:10189000016005484FF4C071FFF70ABC70470000B3
:1018A000005C004040380240001C024010B586B089
:1018B000044614216846FEF753FD12492068884209
:1018C0001ED11148016841F08001016000681221B9
:1018D000012200F080000590032304244FF4C0701F
:1018E0008DE81F0009486946FFF7A4FC0648103040
:1018F000016841F400010160006800F400000590F7
:1019000006B010BD005C004030380240001C0240B0
:1019100002488168027811448160704728000020E5
:10192000074810B5016841F400710160032000F020
:1019300051FB002000F006F800F0F2FA002010BD84
:10194000003C024010B500220146362088B000F06D
:1019500021FB362000F011FB1348016841F0100113
:101960000160006805A900F010000690684601F0CB
:101970007DF901F0A1F90D49400000220C4CB0FBAB
:10198000F1F10C4840F2E7330460C0E90332491E2C
:10199000C0E9011201F032FF10B1012008B010BD02
:1019A000044801F08FFFF9E74038024040420F0041
:1019B00000100040640300202DE9F041044690F837
:1019C000A00016460F4601281DD0012584F8A0501E
:1019D000022084F8A10006EB860000EBC60034224A
:1019E00004EB80003830FEF7A2FC32463946204630
:1019F00002F02CFC216800204D6284F8A15084F88C
:101A0000A000BDE8F0810220FBE710B5044600F01D
:101A100015F90020C4F8A40084F8A10084F8A000FF
:101A200010BD70472DE9F0410446006800274FF0D3
:101A30000408856B466B690715D5710713D5426B92
:101A400022F0040242632068C0F83C80D4F8A4006D
:101A500040F00100C4F8A40084F8A180204684F876
:101A6000A070FFF7DEFFA80716D5B00714D52068D1
:101A70000222436B23F0020343632068C263D4F85D
:101A8000A40040F00200C4F8A40084F8A18020461D
:101A900084F8A070FFF7C5FF05EA06004FF00108C3
:101AA000C0070ED021684A6B22F001024A63216808
:101AB000C1F83C8084F8A180204684F8A07000F032
:101AC00091F8280710D530070ED520680822436BFF
:101AD00023F0080343632068C26384F8A180204692
:101AE00084F8A07000F090F9BDE8F0812DE9F04194
:101AF000040004D094F8A100002518B107E00120EB
:101B0000BDE8F081204684F8A05000F0CDF83448BC
:101B1000022184F8A110012202CC8B6923F07043CA
:101B20008B6194E84A001943E3681E4354F8043D6E
:101B300031439E693143996121688B6803408B6012
:101B40002168A68AA7698B683B4343EA06438B60FA
:101B50002168CB680340CB602168A38B276ACE68DD
:101B60003E4346EA0346CE6021680B6903400B61A1
:101B70002368A68CA76A1969394341EA06411961AD
:101B800021684B6903404B612068A38D266B416936
:101B9000314341EA03414161236894F8351094F8D8
:101BA0003600DE6A000406F07F46DE62236840EA03
:101BB000012094F83460D96A31430143D962206826
:101BC000416B41F0060141632068816941F00101E8
:101BD0008161C4F8A45084F8A120002090E700009F
:101BE00000F800F0124910B5124A134C0B68118826
:101BF0008B4212D1518800F0E5F8206890F8561019
:101C0000491C80F8561004F031FD206806F0F8F801
:101C1000BDE81040002007F00DB800F0D3F8002018
:101C200007F00AF8206801688969BDE81040084794
:101C3000406801401A0000207C01002010B50068B7
:101C40001249884220D11248016821F08061016068
:101C500010481021FFF72CFA0F484EF6FF71FFF7DE
:101C600027FA0E48F721FFF723FA0D484FF4805169
:101C7000FFF71EFA0B484FF44641FFF719FABDE88B
:101C80001040582000F068B910BD00000068014005
:101C90004438024000100240002402400028024064
:101CA000001802400020024070B586B0044614219E
:101CB0006846FEF755FB3C492068884272D13B4894
:101CC000016841F080610160006800F0806005906B
:101CD00036481438016841F010010160016801F0D4
:101CE00010010591016841F400710160016801F47F
:101CF00000710591016841F480610160016801F49F
:101D000080610591016841F040010160016801F0C6
:101D100040010591016841F4807101600068002470
:101D20000E26694600F48070059010200090022570
:101D30001F48CDE90154CDE90346FFF77BFA4EF683
:101D4000FF700090CDE901541A486946CDE9034679
:101D5000FFF770FAF7200090CDE901541648694664
:101D6000CDE90346FFF766FA0921E8020090CDE9C4
:101D70000154CDE9034111486946FFF75BFA4FF47E
:101D800046400090CDE901540D486946CDE903462F
:101D9000FFF750FA00220521582000F0FBF85820E8
:101DA00000F0EBF806B070BD006801404438024016
:101DB00000100240002402400028024000180240A7
:101DC0000020024070B590F8A020012A18D00D4DD7
:101DD000012380F8A030022280F8A120002450F8CE
:101DE000A02B566B26F001065663296050F8A01C04
:101DF0004A6B42F001024A6343700470204670BD92
:101E0000022070BD4068014070470000F0B590F8B6
:101E1000A030012B37D0012680F8A06002EB8204AD
:101E2000022380F8A13004EBC20400EB84039B6C16
:101E30005BB3012B2BD0042B2BD0022B29D0032BEF
:101E400027D0072B25D0012305684FF0B00C124F87
:101E50000CEBC212114C5943AB583B40AB502368BA
:101E6000002743F00103236003689D5845EA0145BC
:101E70009D50216841F00101216080F8A16080F847
:101E8000A0703846F0BD0220F0BD0423DCE7032338
:101E9000DAE70223D8E70000FFFF00E024680140F2
:101EA000F0B5154C4378211D0A1D23600378F3B16A
:101EB00043680B60057BC67A817A437B2D07847B60
:101EC00045EA0665C77B90F809C0067A90F800E0FD
:101ED00045EAC14040EA834040EA444040EA0740C6
:101EE00040EA0C2040EA460040EA0E0001E00020F3
:101EF00008601060F0BD000098ED00E0074A40F077
:101F00000100064970321060086840F480300860B3
:101F1000BFF34F8FBFF36F8F7047000024ED00E0D9
:101F20000C4882B0016841F080510160006800F007
:101F3000805000900748001D016841F48041016015
:101F4000006800220F2100F480400090901E02B033
:101F500000F020B84038024000280DDB410900F0B5
:101F60001F028900012001F1E0219040C1F88001A9
:101F7000BFF34F8FBFF36F8F7047002809DB410914
:101F800000F01F028900012001F1E0219040C1F81A
:101F9000000170470E4BF0B41B680D46C3F30223DB
:101FA000C3F10706042E00D90426191D072901D202
:101FB000002300E0DB1E012404FA06F19C40491EC8
:101FC0002940641E994014402143F0BC0BF0FAB93B
:101FD0000CED00E0064900F0070210B54FF6FF04D3
:101FE0000868044B204040EA02201843086010BDF6
:101FF0000CED00E00000FA051848F8B5016841F062
:10200000805101600068164C00F0805000902068FC
:1020100040F480302060FFF7FFF94FF47A760546F0
:1020200005E000BFFFF7F8F9401BB0420FD8606829
:10203000C003F7D5206840F400302060FFF7ECF9CA
:10204000054606E0FFF7E8F9401BB04201D903203E
:10205000F8BD60688003F5D50020F8BD4038024027
:10206000007000400248016841F4807101607047CF
:1020700000700040F8B500250446FFF7CDF906468C
:1020800094F84100800731D5002084F84000206892
:10209000016849070BD5016821F004010160E06B7C
:1020A000FEF7ABFF18B1606C40F00400606420687C
:1020B000016841F002010160A06C01220221334657
:1020C0000090204602F010FB05000FD1216802208D
:1020D000C8600022A06C202133460090204602F008
:1020E00003FB050002D1012084F841002846F8BD19
:1020F0002DE9F84F1E4615468A460446FFF78CF92F
:10210000814694F8400001280ED001274FF00008C6
:1021100084F8407094F84100012807D05FF0020075
:1021200084F84080BDE8F88F0220FBE74221C4F824
:10213000448084F84110002220214B46204600961E
:1021400002F0D2FA0028EBD1216828688862216861
:10215000686848622168A868C862206829690268BE
:1021600022F4400242F4800211430160E9684FF01A
:1021700000622046CAF82810514602F073F9012285
:102180004B4608212046009602F0AEFA0028C7D13F
:1021900022680821D16084F84170C1E72DE9F84F29
:1021A00017468B460446FFF737F9824694F84000FD
:1021B00001280ED001264FF0000884F8406094F802
:1021C0004100012807D0022584F840802846BDE858
:1021D000F88F0220FBE74FF00209C4F8448084F82E
:1021E00041900022202153462046009702F07CFABD
:1021F0000500E9D100225946204602F033F9DBF808
:10220000240058B90122534602212046009702F0CB
:102210006BFA0500D8D12168C1F80C9084F84160B0
:10222000D2E710B5040015D094F84000012813D06F
:10223000012084F840002068016821F0010101605C
:10224000204600F0B1F80020606484F8410084F872
:10225000400010BD012010BD022010BDF8B504469D
:10226000FFF7DAF807465CB194F84000012809D07E
:10227000012684F84060002594F8410020B10BE06D
:102280000120F8BD0220F8BD84F84050204600F03F
:10229000AFF841F28830A06420686FF0FF03A168B6
:1022A000026803EB012322F4F85119430160A06C8A
:1022B000002220213B460090204602F015FA30BB58
:1022C0002268D4E9077C94F804E0E1681368394394
:1022D000104F4CEA0E6EDFF840C03B4041EA0E0161
:1022E000194311602168D4E90527B4F810E04B6860
:1022F0003A4303EA0C0343EA0E431A434A60216857
:102300000A6842F001020A60656484F8416084F85A
:102310004050F8BD2FFFFF00FEF8E0FF2DE9F84325
:10232000164688460446FFF777F8034694F84000BF
:1023300001280ED0012084F84000002794F84100C5
:10234000012808D05FF0020584F840702846BDE8F7
:10235000F8830220FBE7A06C8221676484F84110B7
:10236000002220210090204602F0BEF90500EBD1AA
:1023700020687268016821F00801114301607068EB
:1023800008280AD122681021306810632068C160D3
:102390002068016841F4801101604FF040624146BD
:1023A000204602F05FF8CFE710B500680B4988427D
:1023B00013D10B48016821F0020101600948042192
:1023C000FEF776FE08484421FEF772FEBDE8104095
:1023D00006484FF46051FEF76BBE10BD001000A020
:1023E000383802400010024000040240000C024055
:1023F0002DE9F04387B0044614216846FDF7B0FF8D
:102400002B49206888424FD12A48016841F00201D7
:102410000160006800F00200059026480838016855
:1024200041F010010160016801F01001059101689F
:1024300041F002010160016801F0020105910168AB
:1024400041F0080101600068092701AA4FF0040863
:1024500000F00800CDF80080022469460025CDE98F
:1024600004700326144882E87000FEF7E3FE0A2198
:10247000DFF848904020CDE903618DE831006946DE
:102480004846FEF7D7FE01AACDF8008069464846C7
:1024900082E8F000FEF7CEFE4FF4605069468DE80A
:1024A000F1000748FEF7C6FE07B0BDE8F083000064
:1024B000001000A038380240001002400004024022
:1024C000000C02402DE9F84F15460F460446FEF772
:1024D000A3FF82462068816994F8403000F120090A
:1024E000012B0DD001264FF0000884F8406094F8CD
:1024F0004120012A06D0022084F84080BDE8F88FF0
:102500000220FBE7C4F84480B7B3222284F84120BC
:102510000269521CA2630269521C6263276342690A
:1025200022F0406242F080624261206881610DE0E9
:102530000621204602F0D8F8D8B999F80020206B7F
:10254000411C21630270A06B401EA063A06B534628
:102550004FF0010200950028EAD14FF00201204619
:1025600002F0C2F828B921680220C8602046FFF7AF
:1025700081FD84F84160BFE7FFE7616C012041F015
:1025800008016164B8E700002DE9F84F15460F46D1
:102590000446FEF741FF94F8401082462068012966
:1025A00000F120090ED001264FF0000884F84060A9
:1025B00094F84110012907D05FF0020084F84080B0
:1025C000BDE8F88F0220FBE7C4F8448097B31221DE
:1025D00084F841100169491CE1620169491CA1624A
:1025E0006762416921F0406141610DE004212046AC
:1025F00002F07AF8D8B9606A411C6162017889F802
:102600000010E06A401EE062E06A53464FF00102AB
:1026100000950028EAD14FF00201204602F064F84C
:1026200028B921680220C8602046FFF723FD84F8FE
:102630004160C3E7FFE7616C012041F0080161647C
:10264000BCE700002DE9F84F04460078DFF8249439
:102650004FF000063746C0070ED0D9F8001021F41D
:102660000001C9F80010D9F80010626B1143C9F8D5
:102670000010606B00B90126FE4D20688435000310
:102680000ED5E16B286820F4401008432860E06B09
:10269000B0F5801F01D010B102E0012600E0012753
:1026A00020684FF4800BC0020CD5216C286820F400
:1026B000400008432860206C584501D1012601E004
:1026C00000B901272068C10100D50126800666D522
:1026D000E8483830016841F0805101600068DFF857
:1026E00098A300F080500090DAF8001041F4807157
:1026F000CAF80010FEF790FE804605E0FEF78CFE5B
:10270000A0EB080064287DD8DAF80000C005F5D5F4
:10271000DFF8608308F16808D8F8000010F4407012
:102720002AD0218E01F44071814225D0D8F80010C2
:10273000D8F8002021F4407142F48032C8F800201B
:10274000D8F8002022F48032C8F80020C8F8001021
:10275000D8F80000C0070FD0FEF75EFE824607E003
:10276000FEF75AFEA0EB0A0141F288308142CAD836
:10277000D8F800008007F3D5206BC0F301210329AE
:102780007ED0D9F8001021F4F811C9F80010228E7B
:10279000D8F80010C2F30B021143C8F800102078DB
:1027A000C00607D5286820F0807028602868A16BD3
:1027B000084328602188AF488830490405D5626EF7
:1027C000016821F44031114301602188090405D5D5
:1027D000A26E016821F44021114301602168C90300
:1027E00005D5E26E016821F44011114301602168B2
:1027F000890305D5226F016821F44001114301606E
:10280000217800E018E1490605D5626C016821F0E5
:102810000301114301602178090605D5A26C016806
:1028200021F00C01114301602188C90505D5E26C36
:10283000016821F03001114301602188890505D527
:10284000226D016821F0C001114301602188490512
:1028500005D5626D016821F4407111430160218842
:10286000090505D5A26D016821F44061114301609D
:102870002188C90407D5E26D016821F4405100E0C8
:1028800041E0114301602188890405D5226E016869
:1028900021F44041114301602168490205D5A26F2E
:1028A000016821F080611143016021684FF0006AE6
:1028B000890209D5E26F016821F0006111430160CE
:1028C000E16F514500D1012721680A0700D5012792
:1028D000490305D5626F016821F040711143016021
:1028E0002168090206D5D4F88020016821F08051C2
:1028F00011430160DFF88491012E0ED02068B0F101
:10290000007F0AD08FE05E4AD9F80030104023F4EF
:10291000F8120243C9F8002039E7D9F800004E4602
:1029200020F08060C9F80000FEF776FD804605E0E3
:10293000FEF772FDA0EB080064287DD83068000126
:10294000F6D421784B487C30C90712D0616B81B92D
:10295000237A62680168D0F800C09201C1F3014196
:1029600042EA0142CCF3036142EA016141EA0371A8
:10297000016021680A0303D5E26BB2F5801F04D021
:10298000C9021AD5216C594517D16368016894F8BA
:102990000CC002689B01C1F3014143EA0141C2F34B
:1029A000027241EA0C6141EA027101602968626ABF
:1029B00021F01F01521E114329602168C90110D561
:1029C000238A62680168D0F800C09201C1F30361F4
:1029D00042EA034242EA0162CCF3027142EA017127
:1029E0000160216889010CD56168228A237B94F8F3
:1029F00008C0890141EA024141EA036141EA0C71E0
:102A000001603168B04641F080613160FEF704FD3D
:102A1000064604E0FEF700FD801B64280CD8D8F8B9
:102A200000000001F6D56FB3D9F800004E4620F043
:102A30008050C9F8000000E079E0FEF7EDFC0746A1
:102A400005E000BFFEF7E8FCC01B64286FD83068C3
:102A5000C0438000F6D50748216880300A0301D5BD
:102A6000E26B1AB1C90225D5216C19BB63690168F3
:102A7000277E08E00838024000700040003802401D
:102A8000FFFCFF0F5AE00268C1F301419B0143EADA
:102A90000143C2F3027143EA076242EA0171016035
:102AA00029686FF0FF03A26A21F4F85103EB0222B8
:102AB000114329602168890212D5E16F51450FD178
:102AC000238C6269016807689201C1F3036142EADD
:102AD000034242EA0162C7F3027142EA01710160F6
:102AE0002178090716D561690268D0F800C08B010A
:102AF000277FC2F30362CCF3014143EA014141EA7B
:102B0000026141EA077101602868E16A20F44030FF
:102B100008432860306840F080503060FEF77CFC4D
:102B2000044607E0FEF778FC001B642802D9032066
:102B3000BDE8F88F3068C0438000F3D40020F7E789
:102B40002DE9F04705000F4663D0444E306800F091
:102B50000F00B84209D2306820F00F0038433060CF
:102B6000306800F00F00B84253D128683C4C810710
:102B700012D5400703D5206840F4E0502060287843
:102B8000000703D5206840F460402060A9682068F1
:102B900020F0F000084320602878C0072AD0304990
:102BA00068680839012810D00968022810D0890700
:102BB00000292EDA216821F0030101432160FEF78C
:102BC0002BFC804641F288390DE009688903EFE764
:102BD0008901EDE7FEF720FCA0EB0801494502D989
:102BE0000320BDE8F0876868216801F00C01B1EBB3
:102BF000800FEFD1306800F00F00B8420BD9306879
:102C000020F00F0038433060306800F00F00B84209
:102C100001D00120E5E72878400705D5E96820685C
:102C200020F4E050084320602878000706D5286982
:102C3000216821F4604141EAC000206000F05CF8A6
:102C40002168084AC1F30311515CC8400649086075
:102C50000020FEF777FE0020C3E70000003C0240A2
:102C60000838024024F40008340000200D4A0F23E5
:102C700030B503604FF4E0540B4B156805F00305C5
:102C80004560156805F0F0058560156805F4E055A8
:102C9000C560126804EAD2020261186800F00F00F1
:102CA000086030BD08380240003C0240014800681E
:102CB0007047000034000020044905480968006896
:102CC000044AC1F38221515CC84070470838024071
:102CD0003400002034F400080449054809680068FD
:102CE000044AC1F34231515CC84070470838024081
:102CF0003400002034F40008154910B5154809685F
:102D000011F00C0213D01449042A0FD0082A0ED156
:102D10000F4C241F2268236802F03F025B0207D594
:102D20002068C0F38810A0FB010106E0084610BD32
:102D30002168C1F38811A1FB00010023FDF7C6FA49
:102D40002168C1F30141491C4900B0FBF1F010BDFD
:102D5000083802400024F40040787D012DE9F84F46
:102D600005004FF000076ED02878DFF81C93A9F11A
:102D7000040AC007AAF104044CD0D9F80010484650
:102D8000C1F38101012908D00068C0F38100022845
:102D90000AD1DAF80000400206D52068800339D550
:102DA00068680028DFD035E06868B0F5803F0BD058
:102DB00010B1B0F5A02F11D0206820F48030206031
:102DC000206820F4802002E0206840F480302060F9
:102DD000686890B1FEF720FB06460AE0206840F4E0
:102DE00080202060F0E700BFFEF716FB801B642800
:102DF00072D820688003F7D50CE0FEF70DFB06467D
:102E000005E000BFFEF708FB801B6428F0D82068AF
:102E10008003F7D42878800742D5D9F800104846B7
:102E200011F00C0F08D00068C0F3810002280BD10C
:102E3000DAF80000400207D42068800718D5E86857
:102E4000012800D114E01CE1E8680028206817D0B0
:102E500040F001002060FEF7DFFA064605E000BF03
:102E6000FEF7DAFA801B0228C2D820688007F7D55F
:102E70002869216821F0F80141EAC00020600FE0D4
:102E800020F001002060FEF7C7FA064605E000BF0B
:102E9000FEF7C2FA801B02281ED820688007F7D4EC
:102EA0002878000729D5784869696C300029804660
:102EB000016812D041F001010160FEF7ADFA06464B
:102EC00005E000BFFEF7A8FA801B022804D8D8F856
:102ED00000008007F6D510E089E021F001010160D3
:102EE000FEF79AFA064604E0FEF796FA801B0228DF
:102EF0007DD8D8F800008007F6D4287840076BD535
:102F0000DFF8848108F13808D8F80000C0000BD43D
:102F1000D8F8001041F08051C8F80010D8F800002F
:102F2000012700F08050009058480168C90512D46C
:102F30000168834641F480710160FEF76DFA064630
:102F400005E000BFFEF768FA801B64284FD8DBF865
:102F50000000C005F6D54C4EA868683601280AD096
:102F600008B1052811D0306820F0010030603068C9
:102F700020F0040002E0306840F001003060A868F2
:102F8000A0B1FEF749FA83460CE0306840F0040037
:102F90003060F0E7FEF740FAA0EB0B0141F2883019
:102FA000814266D830688007F4D50EE0FEF734FA27
:102FB000834607E0FEF730FAA0EB0B0141F28830C0
:102FC000814256D830688007F4D42FB1D8F8001069
:102FD00021F08051C8F80010A869C8B3D9F80010D2
:102FE000C1F3810102294CD00228206800E040E0B2
:102FF00020F08070206003D0FEF70EFA05463BE01B
:10300000FEF70AFA064604E0FEF706FA801B0228DD
:103010002FD820688001F7D4D5E90962D5E90701E6
:103020001B4B570895F82C20084303EB074343EA52
:103030008611084340EA026040F00050CAF80000E0
:10304000206840F080702060FEF7E6F9054606E053
:1030500015E000BFFEF7E0F9401B022809D8206800
:103060008001F7D50BE000BFFEF7D6F9401B022820
:1030700002D90320BDE8F88F20688001F4D4002035
:10308000F8E70120F6E70000083802400070004031
:103090000000FFFFF0B5037F012B26D00124047749
:1030A000022343770568CA26AB686E62532506681B
:1030B00075620568EE6C26F00606EE640568EE6C37
:1030C00040F608071643EE64BB430B4301688B6070
:1030D00001688A6842F400628A600268FF215162D6
:1030E0000021447701770846F0BD0220F0BD0000C2
:1030F0002DE9F041040002D0607F18B107E0012003
:10310000BDE8F08100202077204600F041F8022041
:103110006077CA21226853205162216848622046A4
:1031200001F044FB002820684FF0FF0103D0042287
:1031300041626277E3E7154D012382682A4082608D
:10314000D4E90026D4E9045790683D43304328432E
:1031500090602268E068106120682289056945EA6C
:10316000024202612068C26822F08002C2602068C8
:10317000C26C22F00802C2642068A569C26C2A43AE
:10318000C2642068416263770020B9E7BFFF8FFF08
:1031900000680449884204D10348016841F40041B1
:1031A0000160704700280040703802402DE9F05F50
:1031B0000446007F0B46012843D0022101202077DE
:1031C00061774FF00006206880684FEA4060BAB32C
:1031D000002800DB1E7358781A781F7B9978050247
:1031E00093F824C041EA0241186A45EA07459A6902
:1031F000294341EA0C65054315432268D3F81CC0F6
:10320000CA215F6853204FF0FF0851624FF47A7A69
:10321000216847EA0C074FF0030B4862986AB0F543
:10322000807F206881682DD021F400718160206842
:10323000816821F400518160FEF7EEF8814655E087
:1032400002E00220BDE8F09F002800DB1E73187822
:1032500001F0A1FA0204587801F09DFA42EA002236
:10326000987801F098FA197B024393F8240042EA17
:10327000014201F090FA196A42EA006598690D432B
:103280000543BAE721F4807181602068816821F4E8
:1032900080518160FEF7C0F881460BE0FEF7BCF874
:1032A000A0EB0900504505D92268C2F8248084F8B3
:1032B0001DB018E02068C068C007EFD02068C56165
:1032C000206847642068816841F480711AE000BF7B
:1032D000FEF7A2F8A0EB0900504507D92268C2F812
:1032E000248084F81DB003202677ABE72068C068EF
:1032F0008007EDD5206805622068876420688168B2
:1033000041F40071816022680120C2F82480607756
:103310000020267796E700002DE9F0470446007F5D
:103320000B46012821D04FF0010984F81C9002219E
:103330006177EAB159789878DA781B78090240EA1F
:10334000024541EA433005432268CA2153205162B5
:1033500021684862204601F029FA4FF000064FF03C
:10336000FF074FF0040860BB1AE00220BDE8F087B9
:103370005878C10603D500F0EF000A305870D878AD
:1033800001F009FA0204587801F005FA42EA002235
:10339000987801F000FA1978024342EA4135D3E700
:1033A00021680F4805404D602068C16821F0800108
:1033B000C1602068806880060AD4204600F088F842
:1033C00030B121684F6284F81D8001202677CDE757
:1033D00021684F6284F81D9000202677C6E7000020
:1033E0003FFFFF002DE9F0470446007F0D4601280E
:1033F00028D04FF0010A84F81CA0022161772068D0
:103400004FF0000680684FEA4060F2B1002800DB10
:103410002E7369782A78A8782B7B090240EA024744
:1034200041EA034007432268CA21532051622168C0
:103430004862204601F0BAF94FF0FF084FF0040946
:10344000A0BB16E00220BDE8F087002800DB2E7349
:10345000287801F0A0F90204687801F09CF942EAAA
:103460000022A87801F097F9297B024342EA01473C
:10347000D9E72168154807400F602068816821F46A
:10348000802181602068D5E90412836811431943C3
:1034900081602068C16821F08001C1602068806877
:1034A00080060BD4204600F013F838B12268C2F829
:1034B000248084F81D9001202677C4E72268C2F892
:1034C000248084F81DA000202677BCE77F7F7F0042
:1034D00070B504460068C16821F0A001C160FDF725
:1034E0009BFF4FF47A76054607E000BFFDF794FF97
:1034F000401BB04201D9032070BD2068C06880061F
:10350000F4D5002070BD70B504000D4603D094F8CA
:103510002C0010B107E0012070BD002084F82D00C0
:10352000204600F011F8022084F82C002068211DAC
:10353000FDF73DFAD4E900022946FDF77DFA0120A6
:1035400084F82C00002070BD02F01EB910B50446AE
:1035500090F82C00022809D0022084F82C00206862
:10356000FDF754FA012084F82C00002010BD000063
:1035700070B5044690F82C000D4602280DD00220AC
:1035800084F82C002068FDF747FA2868022805D047
:103590005FF0010084F82C00002070BD0520F9E7E1
:1035A0002DE9F047040005D094F85D000025A562E0
:1035B00018B107E00120BDE8F087204684F85C5090
:1035C00000F050F8022284F85D204FF4E063206898
:1035D000016821F040010160E068984201D90021B2
:1035E00001E04FF48051B0F5706F02D0984200D0E6
:1035F000A5624FF00109266B2EB9984201D92263CA
:1036000001E0C4F83090D4E90468D4E90102278BC2
:1036100046EA0806A36A104307F400783043266898
:10362000D4E907C240EA080040EA0C00CC4604276F
:10363000104318433060D4F81880666B606AE26803
:1036400007EA1847236830433A4310430843586059
:103650002068C16921F40061C161256684F85DC0FC
:103660000020A8E770B586B0044614216846FCF730
:1036700077FE1C492068884231D11B48016841F41B
:1036800080410160006800F48040059016481038C1
:10369000016841F480710160016801F48071059155
:1036A000016841F0020101600068002402250095D4
:1036B00000F002006946CDE9015405260394CDE9E6
:1036C00004600A48FDF7B6FD4FF440400090CDE994
:1036D000015407486946CDE90346FDF7ABFD06B046
:1036E00070BD000000380040403802400020024019
:1036F0000004024070477047704700002DE9F04316
:1037000090F83C20012A42D0012280F83C2051F858
:103710000C4BDFF880804FF0000991E8680051E918
:10372000022723F44073B1F80CC03B43CF6923F464
:1037300080631343026823F40063234323F480531C
:1037400043EA050323F4005343EA060323F48043CA
:1037500043EA07030C3923F47023424543EA0C4340
:1037600002D00D4CA2420CD18D8C23F47006D1E90D
:10377000073446EA055121F08071194321F00073A6
:103780002343536480F83C900020BDE8F08302207E
:10379000FBE70000000001400004014070B590F814
:1037A0003C20012A24D0134C012580F83C500222F1
:1037B00080F83D2002685368A242966802D00E4C01
:1037C000A24203D14C6823F4700323430C6823F016
:1037D000700389681C435460002326F08006026849
:1037E0003143916080F83D5080F83C30184670BD00
:1037F000022070BD000001400004014010B504002B
:1038000003D094F83D0010B107E0012010BD002066
:1038100084F83C00204600F00DF8022084F83D00BA
:103820002068211D01F08CF8012084F83D00002063
:1038300010BD000008B5134A01681348914207D132
:10384000016841F001010160006800F001000BE037
:103850000E4A91420AD10C48001F016841F008014C
:103860000160006800F00800009008BD084A91421D
:10387000FBD1016841F002010160006800F0020024
:10388000F2E700000000014044380240000C004014
:10389000000401400A4B022180F83D1001688A684B
:1038A0001A40062A06D0B2F5803F03D00A6842F0DB
:1038B00001020A60012180F83D10002070470000DD
:1038C000070001000168094ACB6843F00103CB609F
:1038D000016888681040062806D0B0F5803F03D004
:1038E000086840F0010008600020704707000100F0
:1038F00070B5044690F83C00012817D0324B0125E2
:1039000084F83C50022084F83D00226890681840FA
:1039100020F47F4090600868502830D00DDC2028CB
:103920004DD005DC98B310283BD148E0022070BD93
:10393000302844D0402834D139E0602828D070287D
:1039400006D0B0F5805F2CD0B0F5005F29D10AE039
:103950004A682068D1E9021301F058F820688168AC
:1039600041F0770109E04A682068D1E9021301F0CB
:103970004DF82068816841F48041816011E0CA6897
:103980004968206801F08AF92068502107E016E0B4
:10399000CA684968206801F092F92068602101F046
:1039A0003EF8002084F83D5084F83C0070BDCA68A1
:1039B0004968206801F072F920684021EFE7226829
:1039C00001461046EBE7000088FFFEFF704770B528
:1039D0000446006800250169C943890715D4C168F8
:1039E000C943890711D4EA1E0261012121772068A9
:1039F00080698007204602D0FFF7E8FF04E000F06E
:103A0000A7F8204600F055F9257720680169C943D9
:103A1000490717D4C168C943490713D402216FF07D
:103A20000402026121772068806910F4407F2046FB
:103A300002D0FFF7CBFF04E000F08AF8204600F048
:103A400038F9257720680169C943090716D4C16888
:103A5000C943090712D404216FF0080202612177DB
:103A60002068C0698007204602D0FFF7AFFF04E05E
:103A700000F06EF8204600F01CF9257720680169F7
:103A8000C943C90617D4C168C943C90613D408215C
:103A90006FF01002026121772068C06910F4407F46
:103AA000204602D0FFF792FF04E000F051F82046D4
:103AB00000F0FFF8257720680169C943C90708D1DC
:103AC000C168C943C90704D1891E0161204600F0BD
:103AD000F1F820680169C943090609D4C168C943DE
:103AE000090605D46FF0800101612046FFF703FE4F
:103AF00020680169C943C90509D4C168C9430906D9
:103B000005D46FF4807101612046FFF7F3FD206852
:103B10000169C943490609D4C168C943490605D4A6
:103B20006FF040010161204600F0CEF82068016985
:103B3000C94389060BD4C168C943890607D46FF00D
:103B4000200101612046BDE87040FFF7D5BD70BD82
:103B5000704770B5044690F83C000D4601280ED021
:103B6000012684F83C60022084F83D000C2A45D0F0
:103B700007DC5AB1042A1BD0082A78D12CE0022095
:103B800070BD102A4ED0142A71D15DE0206800F07B
:103B90004FFF2068816941F00801816120688169D7
:103BA00021F00401816120682A698169114311E0D3
:103BB000206800F077FF2068816941F4006181612D
:103BC0002068816921F480618161206829698269A6
:103BD00042EA012181614AE0206800F09FFF2068ED
:103BE000C16941F00801C1612068C16921F0040187
:103BF000C16120682A69C169114311E0206800F0A1
:103C0000C9FF2068C16941F40061C1612068C169D0
:103C100021F48061C16120682969C26942EA0121F9
:103C2000C16124E0206800F0E1FF2068416D41F0AF
:103C3000080141652068416D21F00401416520685B
:103C40002A69416D114311E0206800F0FBFF2068F4
:103C5000416D41F4006141652068416D21F480614E
:103C6000416520682969426D42EA012141650020D1
:103C700084F83D6084F83C0070BD10B5040003D0AA
:103C800094F83D0010B107E0012010BD002084F839
:103C90003C00204600F00CF8022084F83D0020682B
:103CA000211D00F04DFE012084F83D00002010BDD4
:103CB0007047704700680349884201D1FDF728BE6C
:103CC0007047000000100040704710B5040002D09B
:103CD000606F10B107E0012010BD002084F8700073
:103CE000204600F025F8242060672068016821F054
:103CF00001010160204601F0A3F80128ECD0606AC0
:103D000010B1204601F01AF82068416821F4904172
:103D100041602068816821F02A0181602068016883
:103D200041F0010101602046BDE8104001F06AB891
:103D300070B586B0044614216846FCF711FB1C4997
:103D40002068884231D11B48016841F010010160B0
:103D5000006800F01000059016481438016841F022
:103D600002010160016801F002010591016841F062
:103D700001010160006800240726694600F0010087
:103D800005908020009002250B48CDE90154CDE933
:103D90000346FDF74FFA28020090CDE90154074889
:103DA0006946CDE90346FDF745FA06B070BD00004F
:103DB000001001404438024000040240000002406C
:103DC000FEE701688A69D243920701D400228A6221
:103DD00000688169C943C90703D0816941F00101C5
:103DE000816170472DE9F0410446006890460E4617
:103DF0008069C043C00635D400252027206880692B
:103E0000C043800616D5701CF8D0FDF705FBA0EB6B
:103E10000800B04201D8002EF0D1606C84F8405008
:103E200040F02000606484F8417084F84250012022
:103E3000BDE8F08121681020C8612068C761204674
:103E4000FFF7BFFF2068084942680A404260606C83
:103E500040F00400606484F8417084F8425084F8B3
:103E60004050E4E70020E3E700E800FE2DE9F843D6
:103E7000174604461548DAB2DDE908981E46009058
:103E80000023204600F056F842464946204600F0FE
:103E9000BBF8B8B9012EFDB208D02068390A81629A
:103EA00042464946204600F0AFF858B9206885627E
:103EB000002240214B462046CDF8008000F050F80B
:103EC000002800D00120BDE8F88300000020008019
:103ED0002DE9F8430446164817461E46DAB200900C
:103EE000C3022046DDE9089800F024F8424649461E
:103EF000204600F089F8B8B9012EFDB208D020683C
:103F0000390A816242464946204600F07DF858B998
:103F100020688562002280214B462046CDF8008033
:103F200000F01EF8002800D00120BDE8F883000052
:103F30000020008070B50068C1F30901074E41EA16
:103F40000241049C4FF480654268194305EA5455C8
:103F50003543AA4321430A43426070BDFF63FF0318
:103F60002DE9F0411D4617460E460446DDF818803F
:103F700008E0681C06D0FDF74FFAA0EB0800A84245
:103F80000BD855B12068806936EA000013D00020B4
:103F9000B842EED00020BDE8F081626C002084F8C9
:103FA0004000202142F02002626484F8411084F82D
:103FB00042000120EFE70120EAE770B516460D4602
:103FC00004460DE0324629462046FFF70BFF08B1B4
:103FD000012070BDFDF720FA801BA84207D835B13B
:103FE00020688069C0438006ECD4002070BD626CFC
:103FF000002084F84000202142F02002626484F80E
:10400000411084F84200E3E770B516460D460446B9
:104010000FE0324629462046FFF7E4FE08B10120B2
:1040200070BD681C05D0FDF7F7F9801BA84207D8C2
:1040300035B120688069C0438007EAD4002070BD94
:10404000626C002084F84000202142F0200262646B
:1040500084F8411084F84200E1E710B50446FDF70A
:1040600037FA2046BDE81040AFF3008010B5044693
:10407000FDF748FA002818D10C48844201D10C48B9
:1040800000E00C4801210C4A206000206260C4E975
:10409000020120616061E0612062204600F00EF8BC
:1040A0002046BDE81040FDF731BA10BD1C9100203C
:1040B000005C00400054004032279140F0B5424976
:1040C0000022424B87B0424D4FF48076414C9842DB
:1040D000D1F800C04FF012004FF002034FF0040778
:1040E00037D14CF0800CC1F800C009680DF1080C04
:1040F00001F0800105918021CDE900108CE88C0051
:10410000354F69463846FDF795F8694638460096BA
:10411000FDF790F8286840F400002860286800F453
:1041200000000590206840F400002060206820F422
:104130000000206000220F214820FDF72BFF4820BF
:10414000FDF71BFF00220F214920FDF723FF492027
:1041500035E04CF0020CC1F800C00968CDE902233B
:1041600001F00201CDE90471CDE900601B4E694602
:104170003046FDF75FF87015694600903046FDF750
:1041800059F8286840F400102860286800F40010EE
:104190000590206840F400102060206820F4001092
:1041A000206000220F211F20FDF7F4FE1F20FDF7E5
:1041B000E4FE00220F212020FDF7ECFE2020FDF779
:1041C000DCFE07B0F0BD0000303802401C9100203A
:1041D0004038024020380240001C024000040240E7
:1041E000FEB50D4606464FF47A74DDE908018DE808
:1041F000130029463046FDF7E5F9040003D02946AF
:104200003046FFF72AFF2046FEBDFEB50D460646A6
:104210004FF47A74DDE908018DE813002946304631
:10422000FDF782FA040003D029463046FFF715FF58
:104230002046FEBD4FF4F07070474FF48870704711
:104240000148FDF7EFBB0000940E00202DE9FE4F62
:1042500081460068882493468D888C2204EBCB1716
:104260008A46C3689421BE46C459C3F30B432B440A
:1042700004F470441F04019702EBCB1240F80E4087
:1042800001EBCB13DAF800709C214FF0AC0C01EB82
:10429000CB1440F2077102910CEBCB11D9F800C09E
:1042A00098250020CDF800C0A02605EBCB15DCF842
:1042B0000CC006EBCB16CCF30B4C0CF1010C07EB4E
:1042C0000C08DDF800C0019F48EA07084CF80E8092
:1042D000D9F80070BAF80CC0B846FF68C7F30A07EF
:1042E00067444FEA074E58F8027007F4704C48F8DC
:1042F00002C0D9F800C0DAF80870DCF80C80C8F306
:104300000A0808F10108B84448EA0E084CF802808F
:10431000D9F80020D75827F00707D750D9F80070F0
:10432000DAF81020FA509AF831209AF818304FEA4B
:10433000022C9AF83220120442EA0362D9F80030C3
:104340001F5918519AF8303043EA0C031343D9F837
:1043500000201351D9F80020535923F0FF03535183
:10436000D9F80020DAF814305351D9F800209359C5
:10437000029CA3439351D9F80030DAE90724224381
:104380009A51D9F8002053585050D9F80020DAF843
:1043900024005050DAF81000C8B301283AD004289D
:1043A0003AD0022838D0032836D0072834D001204C
:1043B000D9F80030B02505EBCB11B42284245D5828
:1043C00002EBCB1205F0E0255D50DAE9003504EB95
:1043D000CB14EB1ABAF8285043434543D9F80000F0
:1043E000DB1C43EA05434350D9F8000081586FF3C2
:1043F0000A018150D9F80000DAF82C108150D9F860
:104400000000015941F001010151BDE8FE8FFFE7B5
:104410000420CDE70320CBE70220C9E7FEE7704781
:1044200070B594B0012300221C061E0205250695D6
:10443000CDE90E24CDE90C620B921024CDE90023C6
:1044400011929D051292139205950294CDE90332C3
:104450000B466A4606A9FDF74BFE002800D0012056
:1044600014B070BD2DE9F0434B6A4FF040652BB19D
:10447000AA4203D004688B6A5B1E23618B69002B00
:1044800068D00C6AB4B303688C68DC61CC69FCB199
:10449000D1E90B38D1F824C04E6B8F8A43EA080368
:1044A00046EA0C0633430E6A43EA8743D1E9037CAC
:1044B00043EA0C0333438E693B430F68234304688C
:1044C00033433B4365E0006849688161BDE8F083A0
:1044D000D1E90B364F6A4C6B8D8A33433C430E69EE
:1044E00023430C6A43EA85438D69334309682343B8
:1044F0002B4362E0FFE7CC69B4F1000918D0D1E9A1
:104500000B484F6A4E6BB1F814C044EA08043E43AE
:104510000F683443CE6844EA8C44344344EA0904C7
:104520001C4303683C431443AA425C61CBD1CDE7F2
:10453000D1E90B464F6A4D6BB1F814C034433D438B
:1045400000682C43096844EA8C441C430C43144320
:104550004461BBE70B6AABB303688C68DC61CC6970
:10456000E4B1D1E90B38D1F824C04E6B8F8A43EA0D
:10457000080346EA0C0633430E6A43EA8743D1E94F
:10458000037C43EA0C0333438E693B4323430468B3
:1045900033431343AA42636195D197E7D1E90B36C0
:1045A0004F6A4C6B8D8A33433C430E6923430C6A3C
:1045B00043EA854389693343234300680B4313432C
:1045C000436183E7FFE7CC6984B1D1E90B384F6AD7
:1045D0004E6BB1F814C043EA08033E433343CE6840
:1045E00043EA8C43334323430468D2E74C6A002CEC
:1045F0009DD0D1E90B368F8A4D6B0168334325433B
:104600002B4343EA8740104348615FE730B58FB0E2
:10461000054600214FF480748523009320040694FE
:1046200001220591CDE90A21CDE9081041F2883433
:104630000791224628460C910D916946FDF7AEFD83
:1046400030BB0EA922462846FDF73CFF00BB28469A
:1046500000F06EF8E0B9F0208121009190FAA0F20C
:104660009DF838000A21B2FA82F220F0F000914061
:104670000843224669468DF838002846FDF78EFD2E
:1046800030B90EA922462846FDF77EFF002800D04B
:1046900001200FB030BD30B58FB00546002141F28A
:1046A00088344FF4807266200090CDE9062108918D
:1046B00022462846099105910B910C910D9169466E
:1046C000FDF76CFD68B9992022466946009028469E
:1046D000FDF764FD28B921462846FFF7A1FE002812
:1046E00000D001200FB030BD2DE9F04198461646AC
:1046F0000F460446069D12E0681C10D02DB1FCF751
:104700008BFEA0EB0800A84209D9042084F84100E0
:10471000606C40F0010060640120BDE8F081206819
:104720008068384000D00120B042E5D10020F4E795
:10473000F0B595B00646002441F288354FF48071FB
:104740002A4606200690CDE90C140E9406A93046A0
:104750000F940B94119412941394FDF71FFDB8B9A4
:1047600002204FF0807CCDF83CC043050090102221
:1047700001210391CDE9044305270697CDE9010204
:1047800006A92B466A463046FDF7B2FC002800D049
:10479000012015B0F0BD002102E00A38491CC0B26A
:1047A0000A28FAD2090740EA1160704770B504463A
:1047B0000068C168490614D44FF0FF31C160FCF7AE
:1047C0002BFE4FF47A76054607E000BFFCF724FE87
:1047D000401BB04201D9032070BD2068C06840066C
:1047E000F4D5002070BD0000502010B572B680F3E3
:1047F0001188BFF34F8FBFF36F8F62B60AF0F0F9E5
:1048000018B104494FF080500860002080F31188EF
:1048100010BD000004ED00E0F0B5B3B0302121A8D8
:10482000FBF79EFD14212DA8FBF79AFD8421684615
:10483000FBF796FDFDF716FC2648016841F0805114
:104840000160006800F0805032902348016841F414
:10485000404101600068022401262696E10300F42D
:10486000404032908A0109201923CDE927421D01D9
:10487000CDE92101CDE92B40CDE9293521A8FEF76D
:104880006DFAFDF7B9FBE2024FF4A0510025CDE926
:1048900030122DAA0F20062182E831002DA8FEF744
:1048A0004FF923041195DFF834C003221F120C972F
:1048B0004FF4C070CDF800C01B950521CDE905046B
:1048C000CDE90712CDE90A636846FDF7BBFE33B0B8
:1048D000F0BD000040380240007000406800010058
:1048E000104A30B51048146800210F4B44F470048E
:1048F0001460083305680D4A0D4C45F0010505604C
:1049000019600368051D1340074A03600C322C60D0
:104910000568E305034C25F480250560803C1160A3
:10492000236030BD88ED00E000380240FFFFF6FE56
:10493000103000240148FFF74AB80000640300204B
:10494000F0B5274B4FF0804E264D02689842264E18
:10495000264F274C09D0704507D0A84205D0B04259
:1049600003D0B84201D0A04205D1D1F804C022F052
:1049700070024CEA020298421BD0704519D0A8423E
:1049800017D0B04215D0B84213D0A04211D0194D63
:10499000A8420ED0184DA8420BD0184DA84208D0FE
:1049A000174DA84205D0174DA84202D0164DA84277
:1049B00003D1CD6822F440722A434D6922F080026F
:1049C0002A43026098428A68C2620A68826201D001
:1049D000A04201D10969016301214161F0BD0000DC
:1049E000000001400004004000080040000C0040AE
:1049F00000040140004001400044014000480140E3
:104A000000180040001C00400020004042EA032241
:104A100083680A4323F47F410A43826070478268B7
:104A200022F070020A4342F00701816070470000E3
:104A3000F0B5026ADFF860C0184F22F00102DFF81B
:104A400060E00262066A4268836926F002060D6829
:104A5000B8428C6803EA0C0323F0030344EA06041B
:104A600045EA030501D0704505D1CB6824F0080460
:104A7000234323F00404B84201D0704505D122F449
:104A80004076D1E9053233431A4342608561496873
:104A900041630462F0BD00008FFFFEFF0000014093
:104AA00000040140F0B5026A194E1A4C22F01002BF
:104AB000DFF864E00262056A4368826925F0200538
:104AC000D1F808C0A0420F6802EA060222F4407240
:104AD00045EA0C1542EA072201D0704506D1CE689E
:104AE00025F0800545EA061525F04005A04201D0D5
:104AF000704507D1D1E9054623F4406343EA8403B6
:104B000043EA860343608261496881630562F0BDC0
:104B1000FF8FFFFE0000014000040140F0B5026A73
:104B2000194F1A4E22F48072DFF864E00262056ABF
:104B30004368C26925F40075D1F808C0B0420C681A
:104B400002EA070222F0030245EA0C2544EA0204C5
:104B500001D0704506D1CF6825F4006242EA0722F1
:104B600022F48065B04201D0704507D123F4405251
:104B7000D1E9053642EA031242EA06134360C461F2
:104B80004968C1630562F0BD8FFFFEFF0000014070
:104B900000040140F0B5026A124B114F22F480521A
:104BA00098420262046A4268C36924F400548E6821
:104BB0000D6803EA070323F4407344EA063443EA2A
:104BC000052302D0084DA84204D14D6922F4804249
:104BD00042EA85124260C361496801640462F0BD23
:104BE000FF8FFFFE0000014000040140F0B5026AA3
:104BF000DFF844C022F480320262056A4268446DE4
:104C000025F400350E8960450C4F0B6804EA070453
:104C100045EA064543EA040302D0094CA04204D108
:104C20004C6922F4803242EA0422426043654968BA
:104C300081650562F0BD0000000001408FFFFEFFAE
:104C400000040140F0B5026ADFF844C022F480128B
:104C50000262046A4268436D24F400140E896045C0
:104C60000C4F0D6803EA070344EA065443EA0523A0
:104C700002D0094DA84204D14D6922F4802242EAB3
:104C80008522426043654968C1650462F0BD000049
:104C900000000140FF8FFFFE0004014010B5036AD1
:104CA000046A23F00A0324F00104046284690B43BC
:104CB00024F0F00141EA02118161036210BD10B5D8
:104CC000036A23F0100303628369046A23F47043C8
:104CD00024F0A00443EA0232826144EA0111016235
:104CE00010BDFCF7D3B900000148FFF7BFB90000C1
:104CF0001C9100203EB50124002202AB8DF8082053
:104D0000CDE900340A46234601460348FFF768FA16
:104D10009DF808003EBD00001C91002007B501234E
:104D200082B004AACDE900230A4601460248FFF7F3
:104D30006CFA05B000BD00001C91002090F8241012
:104D4000C90706D00168836A4A6822F400321A4310
:104D50004A6090F82410890706D50168C36A4A683A
:104D600022F480321A434A6090F82410490706D58D
:104D70000168036B4A6822F480221A434A6090F863
:104D80002410090706D50168436B4A6822F40042E3
:104D90001A434A6090F82410C90606D50168836B4F
:104DA0008A6822F480521A438A6090F82410890697
:104DB00006D50168C36B8A6822F400521A438A60E0
:104DC00090F82410490611D50168036C4A6822F452
:104DD00080121A434A60016CB1F5801F06D1016848
:104DE000436C4A6822F4C0021A434A6090F82410C7
:104DF000090606D50168826C486820F4002010433B
:104E00004860704738B500250446C567FCF704FBC9
:104E100003462068006800070BD56FF07E400090C5
:104E2000002220464FF4001100F034F908B10320AD
:104E300038BD2020606784F87050A067002038BD1E
:104E40002DE9F04104468068DFF818C2864F2368D8
:104E5000D4E90452E16928431E6800250A438349C6
:104E6000104306EA0C0606431E604FF40042206819
:104E7000E668436823F44053334343602368A669DC
:104E8000206AD3F808C030432CF4306606439E6095
:104E90002068B8420AD1086810F0030052D00128F7
:104EA0007BD002287AD003286ED186E0704B9842DE
:104EB0000AD1086810F00C0079D004287BD00828AB
:104EC00077D00C2860D178E06A4B98420AD1086804
:104ED00010F030006BD010286DD0202869D0302819
:104EE00052D16AE0644B98420AD1086810F0C000C1
:104EF0005DD040285FD080285BD0C02844D15CE0E2
:104F00005E4B98420DD1086810F440704FD0B0F558
:104F1000807F50D0B0F5007F4BD0B0F5407F33D1CB
:104F20004BE0574B98420FD1086810F4406009D00D
:104F3000B0F5806F3FD0B0F5006F3AD0B0F5406F5C
:104F400022D13AE0012120E04E4B98420DD1086871
:104F500010F440502BD0B0F5805F2CD0B0F5005F3E
:104F600027D0B0F5405F0FD127E0474B98420BD1D7
:104F7000086810F440401AD0B0F5804F1BD0904222
:104F800017D0B0F5404F18D01021E0694FF6EF76FA
:104F9000904238D109295DD202E00CE009E006E038
:104FA000DFE801F00D1027582A5858582D0000212D
:104FB000EBE70221E9E70421E7E70821E5E7FDF750
:104FC0007BFE01E0FDF788FE0146D4F804004900AD
:104FD00001EB5001B1FBF0F080B2A0F11001B14241
:104FE00038D84FF6F0732168C0F3420218401043DE
:104FF00024E026496068EBE7FDF77EFEE4E76068A1
:105000004FF48031E4E7092924D2DFE801F00508F4
:1050100019231C2323231F00FDF74EFE01E0FDF79B
:105020005BFE0146D4F8040001EB5001B1FBF0F047
:1050300080B2A0F11001B1420CD82168C8600AE02A
:1050400013496068F0E7FDF757FEEAE7606802EB96
:105050005001EBE701250020206660662846BDE888
:10506000F0810000F369FFEF00100140903802402A
:105070000044004000480040004C00400050004008
:105080000014014000780040007C00400048E80126
:105090000024F4002DE9F041984617460E460446D8
:1050A000069D08E0681C06D0FCF7B6F9A0EB0800E6
:1050B000A8420BD855B12068C06936EA000017D065
:1050C0000020B842EED00020BDE8F0812168202009
:1050D00000220B6823F4D0730B6021688B6823F0E7
:1050E00001038B606067A067032084F87020EBE702
:1050F0000120E6E7FEE70000F0B587B01C21684616
:10510000FBF72EF915480021134E042300F1080E79
:10511000102506604FF4C077416040268EE82A00D3
:105120004FF4006C0222C0E905670724D502C0E9EC
:10513000071CC0E90951CDE9002403266946CDE9E1
:105140000462CDE902340692FEF7DDF9002801D0B1
:10515000FBF72CFC07B0F0BD400100A07C0F002045
:10516000F0B529488DB0FCF750FC27480024274DA6
:105170002821092240F21526352340F21B1705602D
:105180000B25446040F2352C846040F21D1EC46043
:105190000461143080E8EE5080F8204080F821400F
:1051A00080F822401438FCF7A1FC08B1FBF7FEFBA5
:1051B0004FF4F0754FF488700221CDE90045CDE938
:1051C0000240CDE90A5004A8FF22072680E8160015
:1051D00007A8694697074FF4C06380E8C8008DF8B8
:1051E000304000228DF8314007488DF83240FCF7FE
:1051F000E3FB08B1FBF7DAFB034800222946FCF782
:1052000005FE0DB0F0BD0000940E002000680140C6
:1052100030B593B018210BA8FBF7A2F8002468461C
:105220002C211194FBF79CF827487F21254BFF2266
:105230000360C0E90141C0E9032444618461FDF7D2
:1052400057FF8DF82C4001228DF82D400BA98DF8C9
:105250002E401D480F941094FEF7C4F801258DF8D8
:1052600044508DF8455011A98DF846502A461648ED
:105270008DF84740FEF750F88DF8004028028DF871
:10528000014001228DF8024069460594019404947E
:105290000A900D480694079408948DF82450FDF761
:1052A00085FF68020A900848012269468DF824505B
:1052B000FDF77CFF044802220021FDF7EBFE13B04E
:1052C00030BD000000280040600200200549002891
:1052D00010B5086801D0012100E0002102F0CEFCE9
:1052E000012010BD7C0100202DE9F04F87B0142172
:1052F0006846FBF735F8F648016841F01001016097
:10530000016801F010010591016841F04001016060
:10531000016801F040010591016841F0020101605E
:10532000016801F002010591016841F00801016086
:10533000016801F008010591016841F00401016074
:10534000016801F004010591016841F0010101606B
:10535000016801F001010591016841F400710160EB
:10536000016801F400710591016841F480710160E8
:10537000016801F480710591016841F48061016068
:10538000016801F480610591016841F0200101602C
:10539000016801F020010591016841F08001016080
:1053A00000680122202100F080000590C948FCF728
:1053B0002DF8C94800220C21FCF728F8C748012223
:1053C0000821FCF723F80122C3481103FCF71EF85B
:1053D0004FF40059C24800224946FCF717F8C1486B
:1053E0000022C821FCF712F8002469460820029424
:1053F000CDE90004BC48FBF71DFF02254FF00B0B65
:105400004FF4D040694602AACDE900050326B5480D
:1054100082E85008FBF70EFF01AA4FF0040A3102A0
:1054200000911220012182E81304B0486946FBF77D
:1054300001FF02AA43F62340CDE900050A27AB4845
:1054400082E8D0006946FBF7F5FE10200090CDE918
:105450000154A6486946CDE90345FBF7EBFE8020E1
:10546000009008206946CDE90154CDE903409948F0
:10547000FBF7E0FE4FF4F8500294CDE900050C2054
:105480006946CDE903609A48FBF7D4FEA803009073
:1054900001206946CDE90154CDE903409548FBF769
:1054A000C9FE60204FF00D0800906946CDE9015417
:1054B0008D48CDE90348FBF7BDFEE8026946CDE91A
:1054C00000048D480294FBF7B5FE402000908B4805
:1054D0006946CDE901047F48FBF7ACFE4FF4E0508C
:1054E000694602AACDE90005824882E8D000FBF7B0
:1054F000A1FEF0200090CDE9015477486946CDE93E
:105500000347FBF797FE68020090CDE90154754808
:105510006946CDE90347FBF78DFE2020009001206E
:105520006946CDE901046B480394FBF783FE08202C
:105530000090CDE9015467486946CDE90348FBF77F
:1055400079FE41F20C00009001206946CDE901048A
:1055500061480394FBF76EFE65486946CDE9009407
:105560000294FBF767FE0820009001206946CDE910
:1055700001045A480394FBF75DFE28020090CDE930
:10558000015458486946CDE90348FBF753FE102003
:105590006946CDE900044F480294FBF74BFE0C200E
:1055A000CDF800A06946CDE903604A48CDE9015431
:1055B000FBF740FE48F204006946CDE90004484884
:1055C0000294FBF737FE0120CDF80090CDE90104ED
:1055D000434869460394FBF72DFE4FF4BC4000900E
:1055E000CDE901543E486946CDE90348FBF722FE68
:1055F00042486946CDF80090CDE901043648FBF7F2
:1056000019FEC0200294CDE9000508206946CDE9C5
:1056100003603748FBF70EFE1020694602AACDE969
:1056200000052F4882E8D000FBF704FEC820009058
:1056300001206946CDE901042A480394FBF7FAFDED
:105640000520694602AACDE90005294882E8D00074
:10565000FBF7F0FD3220694602AACDE90005244897
:1056600082E85008FBF7E6FD1E486946CDE900A434
:105670000294FBF7DFFD86211E4802AACDE9001542
:10568000694682E85008FBF7D5FD50210091CDE92D
:10569000015418486946CDE90348FBF7CBFD2820A3
:1056A000694602AACDE90005124882E8D000FBF75E
:1056B000C1FD092140200090CDE90154CDE903410D
:1056C00007486946FBF7B6FD07B0BDE8F08F00005C
:1056D00030380240000C0240002002400028024006
:1056E000001C02400018024000100240000402406A
:1056F0000008024000000240002402400000121096
:105700000E48002110B50C4C01230D4A0460C0E97D
:105710000121C0E9033141618161C1610162FBF78F
:10572000F5FE06480021FBF77DFEBDE8104003486A
:105730000021FBF7A3BE0000005C0040C801002070
:10574000FFEAC0000E484FF4407330B40B4D002107
:105750004FF48274C0E902136A150161C0E9005474
:105760000723C0E90512C161082401624162C0E952
:105770000A13C0E90C1430BCFDF712BF003800401A
:105780008002002001F0FCBCF0B587B0142168460F
:10579000FAF7E6FD2148016800293CD101210160AA
:1057A0001F48016841F001010160006802240025E2
:1057B000694600F00100059003264FF683700C2720
:1057C0008DE8F1001748FBF735FD48F233106946C4
:1057D0008DE8F1001448FBF72DFD4CF2037069468B
:1057E0008DE8F1001148FBF725FD4FF63F006946B3
:1057F0008DE8F1000E48FBF71DFD282069468DE875
:10580000F1000C48FBF716FD082069468DE8F10011
:105810000948FBF70FFD07B0F0BD00002000002095
:10582000383802400010024000180240000C0240CC
:1058300000140240001C0240000802402DE9FF4114
:105840002A4F00242A48012504217E0D1022C0E998
:10585000056400F10806C4611823046286E80E009E
:10586000C0E90075FCF7FAFCFAF754FEFAF72EFED1
:105870005C20FCF771FB1B218DF808108DF80F40A0
:1058800003268DF80B6002208DF80E404FF0104774
:105890008DF800508DF80D408DF80A4001978DF875
:1058A000010068468DF809408DF80C40FCF7F8FAC5
:1058B00017208DF808008DF80F4068468DF80B60B2
:1058C0008DF80E508DF800508DF80D408DF80A407F
:1058D00001978DF801608DF809408DF80C40FCF7B8
:1058E000DFFA0420FCF70AFBBDE8FF81001000A0EE
:1058F000140200202DE9F843204C102700254FF614
:10590000FF780126009521464246C4E90067C4E9B4
:105910000265A1F13400FDF72BFE0120FBF7B6FB79
:1059200002202146C4E90007C4E90265A1F1340060
:105930004246FDF71DFE03214246C4E90017082038
:105940002146C4E90205A1F13400FDF711FE4FF430
:105950000C70009004214246C4E90260C4E90017BB
:105960002146A1F13400FDF703FEA4F1340040F21A
:105970007361BDE8F843FDF7E9BD0000B00F0020FA
:1059800010B5FFF7B9FBFFF7B5FFFFF7E9FB03F031
:1059900052F94FF0204143F2D200086010BD00F0F0
:1059A00011F8012007F0B2FFFBE7002809DB4109ED
:1059B00000F01F028900012001F1E0219040C1F8B0
:1059C00000017047024800680168C9680847000084
:1059D0007C01002030B50468256825F440350D436E
:1059E000256001684C6B24F0070414434C63006885
:1059F000016C6FF30D0119430164002030BD0028D4
:105A00000DDB410900F01F028900012001F1E021B6
:105A10009040C1F88001BFF34F8FBFF36F8F704785
:105A2000090700284FEA116104DB00F1E02080F84B
:105A30000014704700F00F0000F1E02080F8141D02
:105A4000704700000A48002130B4084C0C224FF483
:105A5000E1330460C0E90131C160C0E90412816131
:105A6000C1610162416230BCFEF72FB900100140F4
:105A7000E40200200248006840680168496908475C
:105A80007C01002070470000124800B589B0007802
:105A9000C0071CD10F4807F0B8FCC0B100200E4968
:105AA00004230E4ACDE90510CDE9000307900A232F
:105AB0000290CDE903020A4902460A4801F018FDA6
:105AC000094A0A49FAF768FC0248AFF3008009B0B6
:105AD000044800BDA40000203C9005088C8F0508F8
