:020000040800F2
:1000000060760020A1020008A9020008AB020008E7
:10001000AD020008AF020008B102000800000000B5
:10002000000000000000000000000000DD010008EA
:10003000B50200080000000039020008D946000897
:10004000BB020008BB020008BB020008BB0200089C
:10005000BB020008BB020008BB020008BB0200088C
:10006000BB020008BB020008BB020008BB0200087C
:10007000490C0008550C0008BB020008610C000880
:10008000BB020008BB020008BB020008BB0200085C
:10009000F50B0008BB020008BB020008BB02000809
:1000A000BB020008BB020008BB020008BB0200083C
:1000B00019480008BB020008BB020008BB02000888
:1000C000BB020008BB020008BB020008BB0200081C
:1000D000BB020008BB020008BB020008BB0200080C
:1000E000BB020008BB020008BB020008BB020008FC
:1000F000BB020008BB020008BB020008BB020008EC
:10010000BB020008BB020008BB020008BB020008DB
:10011000BB020008BB02000825480008BB0200081B
:10012000BB020008010D0008BB020008BB0200086A
:10013000BB020008BB020008BB020008BB020008AB
:10014000BB020008BB020008BB020008BD46000855
:10015000BB0200080D0D0008BB020008BB0200082E
:10016000BB020008BB020008BB020008BB0200087B
:10017000BB020008BB020008BB0200080000000030
:10018000BB020008BB020008BB020008BB0200085B
:10019000BB020008BB020008BB020008BB0200084B
:1001A0009D3F0008BB020008BB020008BB0200081C
:1001B000BB020008BB020008BB020008BB0200082B
:1001C000BB020008BB020008DFF80CD000F0EEF81C
:1001D00000480047FD820008607600202D4B19681A
:1001E0000868B0E8F04F80F30988BFF36F8F4FF0D5
:1001F000000080F311887047000000000848006884
:10020000006880F308884FF0000080F3148862B61D
:1002100061B6BFF34F8FBFF36F8F00DF00BF00BF2A
:1002200008ED00E0DFF80C00016841F470010160A6
:10023000704700BF88ED00E0EFF30980BFF36F8FD8
:10024000144B1A681EF0100F08BF20ED108A20E929
:10025000F04F106009B44FF0500072B680F311886F
:10026000BFF34F8FBFF36F8F62B609F0D5F94FF030
:10027000000080F3118809BC19680868B0E8F04FE5
:100280001EF0100F08BFB0EC108A80F30988BFF38E
:100290006F8F704754000020EFF305807047000017
:1002A0000648804706480047FEE7FEE7FEE7FEE710
:1002B000FEE7FEE7FEE7FEE7FEE7FEE7C5470008CC
:1002C000C90100082DE9F05F0546002092469B46D3
:1002D00088460646814640241BE02846414647465C
:1002E000224600F053F853465A46C01A914110D3A3
:1002F00011461846224600F03AF82D1A67EB01081D
:100300004F4622460120002100F031F817EB00098A
:100310004E41201EA4F10104DFDC484631462A4646
:100320004346BDE8F09F40EA01039B0703D009E084
:1003300008C9121F08C0042AFAD203E011F8013BD1
:1003400000F8013B521EF9D27047D2B201E000F82A
:10035000012B491EFBD270470022F6E710B5134669
:100360000A4604461946FFF7F0FF204610BD202A32
:1003700004DB203A00FA02F1002070479140C2F1FC
:10038000200320FA03F3194390407047202A04DB2E
:10039000203A21FA02F00021704721FA02F3D040FE
:1003A000C2F120029140084319467047064C074DA0
:1003B00006E0E06840F0010394E807009847103435
:1003C000AC42F6D3FFF704FF40C5000860C5000843
:1003D0001CB5044600F07EF9034600F06BF90246B6
:1003E0000020CDE900040648064C006800EB8001BF
:1003F00001EBC00104EB8101C96D03F08FFD1CBD51
:1004000034000020E43000202DE9F041134D064671
:10041000134C286800EB400004EB800154F8207076
:10042000496844F8201000F045F982B2286800EBD2
:10043000400004EB80008068C38803FB06F081B2B3
:10044000002000F0E9F8286800EB400044F8207034
:100450003846BDE8F04100F08BBA000034000020BF
:10046000CC3100200648C02330B4082405220460A3
:1004700061034361C261C16230BC02F005BB000090
:100480006030002030B40A4C0A4B246804EB44046A
:1004900003EB84039B689C881D68E41DDB88E408EB
:1004A000203A14FB02F203FB025230BC00F096BC6F
:1004B00034000020CC310020094810B50068816963
:1004C00041F00101816101220648110301F018FD8C
:1004D00001220548BDE81040082101F011BD0000CF
:1004E000E430002000200240002802402DE9F047BF
:1004F000002704461546894610463A4600E0521C3D
:1005000010F8011B0029FAD100F0D4F8DFF89CC0E4
:10051000012B274EDCF8001001EB410106EB8101B5
:1005200089688988B0FBF1F002D0022B09D104E080
:10053000801A484304EB500002E0801A4843001B35
:1005400084B247F6FF71601E884200D30124E04662
:1005500000F0B0F80146D8F8000000EB400006EBD0
:1005600080008068808807FB101189B2814213D314
:10057000012012E049462046FFF784FFD8F800002A
:100580007F1CBFB26D1C00EB400006EB8000806852
:100590008088204484B2DBE700202A780AB1012158
:1005A00000E000210842E5D1BDE8F08734000020DA
:1005B000CC310020164B70B506460D461868154C18
:1005C00000EB800101EBC00004EB8000806C02288E
:1005D0000ED000F06FF8196805FB006001EB810395
:1005E00003EBC10104EB8101C96D41F8202070BD0E
:1005F00000F060F8196805FB006001EB810303EB74
:10060000C10104EB8101C96D21F8102070BD00000B
:1006100034000020E43000202DE9FC419846234BB3
:100620000746234E15460C46186800EB400056F866
:10063000200000F09DF91868A6F1E80200EB8001A7
:1006400001EBC00002EB8000806C02281FD000F09C
:1006500031F8196800FB047001EB810404EBC1015F
:1006600002EB8101C96D01EB800400BF00F022F8AC
:10067000411B1868434600EB400256F82220CDE9A2
:1006800000122A46214603F049FCBDE8FC8100F037
:1006900011F8196800FB047001EB810404EBC1013F
:1006A00002EB8101C96D01EB4004DFE7340000205B
:1006B000CC3100200548006800EB800101EBC00050
:1006C000034901EB8000006E7047000034000020F9
:1006D000E43000200548006800EB800101EBC00019
:1006E000034901EB8000406E704700003400002099
:1006F000E43000202DE9F041224C2820092140F26D
:100700001B1604F1140840F21525352240F21D1C79
:100710000B2340F2352788E8EF1000212046FFF731
:10072000A1FE4FF4F07222664FF4887161660020DA
:1007300084F8340084F8350084F836006060A060E6
:10074000114AE06022602061204601F08DFF18B957
:100750000021204600F05CF80A4801F0EDFF01227C
:100760000A48110301F0CCFB09480122082101F0DD
:10077000C7FB00F009F9074800F0ECF80020BDE8DD
:10078000F0810000E43000200068014000200240B9
:10079000002802403800002030B58DB00A46002302
:1007A00004460093FFF786FFCDE90103FFF792FFB0
:1007B000FF21039007208DF8303009924FF4C06577
:1007C0008DF83130CDE9043106938DF83230CDE922
:1007D0000750FFF76FFF0A90FFF77CFF0B90224650
:1007E0000948694601F016FF074904EB44004FF041
:1007F000FF34E83101EB800223065460034C94601F
:1008000041F820300DB030BDE43000203800002029
:100810004748F0B5016887B041F080610160006829
:1008200000F08060059042481438016841F40001EE
:100830000160016801F400010591016841F01001B7
:100840000160016801F010010591016841F040016B
:100850000160016801F040010591016841F4807177
:100860000160016801F480710591016841F4007133
:100870000160016801F400710591016841F4806133
:100880000160016801F480610591016841F48071A3
:100890000160016801F480710591016841F4806193
:1008A0000160006802240E2500F48060059010208D
:1008B000CDE9000402A8002180E832001D48694605
:1008C00001F032FAE6026946092004901A48CDE99F
:1008D000006401F029FA194F4FF46640CDE9000495
:1008E00069463846049501F01FFA4EF6FF706946D6
:1008F000CDE900041248049501F016FA0495F7209A
:10090000104D6946CDE90004284601F00DFA012496
:1009100069463846CDE9006401F006FA08206946C8
:10092000CDE90004284601F0FFF907B0F0BD000052
:1009300044380240001002400018024000200240EB
:10094000002402400028024001490860704700006E
:10095000340000200449054A096801EB410102EB1B
:10096000810188607047000034000020CC310020F5
:100970000349044A096801EB410142F8210070472C
:1009800034000020CC3100201B4802222DE9F04128
:1009900000F13401174E07230660042581E82C007E
:1009A000CB6000240A61D7014A6110238A61910259
:1009B00044604026C0E902454A00C0E90741C0E959
:1009C00009241030002180E8C800103800F05EF8DB
:1009D00009490948343102F079FD084D10B1012070
:1009E000287000E02C7040F2036000F009F82878CD
:1009F000BDE8F081400100A0A432002048000020A2
:100A00002DE9F843204C102700254FF6FF780126EA
:100A1000009521468146C4E90067C4E90265A1F159
:100A20005000424602F086FD012001F011F902203B
:100A30002146C4E90007C4E90265A1F1500042461D
:100A400002F078FD03214246C4E900170820214640
:100A5000C4E90205A1F1500002F06CFD4FF40870EA
:100A6000009004214246C4E90260C4E9001721460F
:100A7000A1F1500002F05EFDA4F150004946BDE82E
:100A8000F84302F046BD0000F4320020F0B5044601
:100A90004F4887B0016841F00101016000684C498E
:100AA00000F0010005900839086840F480000860F3
:100AB000086800F480000590086840F004000860B1
:100AC000086800F004000590086840F0080008601D
:100AD000086800F008000590086840F01000086001
:100AE000086800F010000590086840F020000860D9
:100AF000086800F020000590086840F04000086099
:100B0000086800F040000590086840F08000086028
:100B1000086801210C2200F0800005900220CDE938
:100B2000010108230093CDE903022A48694601F038
:100B3000FBF84CF2037000902748694601F0F4F886
:100B40004FF6837000902548694601F0EDF84FF6A6
:100B50003F0000902248694601F0E6F848F2331061
:100B600000902048694601F0DFF8282000901E48D8
:100B7000694601F0D9F81D494FF4007500224FF085
:100B8000800CEE006F004A606801C1E902C5C1E94E
:100B900004761831164EC300032581E80D00C1E923
:100BA00003254A618A6141F8186D21630F488C63FF
:100BB00000F0DBFE0D4800F0D9FF00220F213820A5
:100BC00001F0F2FE382001F0E1FE07B0F0BD0000B8
:100BD0003838024000080240000C02400010024079
:100BE0000014024000180240001C0240E4310020C2
:100BF00010640240104B00211048A3F11C0210B5F4
:100C000000F08EFA08B100F041F90D48006828B1F3
:100C1000094900231A461C3908F098FF0948006862
:100C200028B1054900231A461C3908F08FFFBDE89A
:100C30001040024800F0F1BAAC260020DC00002091
:100C40000400002008000020014800F0BFBE0000A2
:100C500098040020014800F0B9BE0000D80300202D
:100C6000014800F0B3BE000038040020F0B5059C38
:100C700044EA034503685C6C04F040442C435C6424
:100C80000368DA634268B2F5403F02D00068C16091
:100C9000F0BD01F47F42856801F47F04224301F036
:100CA0007F4301F47F0701F47F46CCB2BDB1012D33
:100CB00016D001F47F02C1F3C401D20C022D11D071
:100CC000032D14D0320B390D15011A0F45EA0123FB
:100CD000210943EA02320A4300688263F0BD1A43E5
:100CE0002243F9E7B30A5B0143EAC222F3E7F40ABD
:100CF000DB0F640144EA822242EAC332EBE70000E0
:100D0000014800F063BE0000F8040020014800F034
:100D10005DBE00005805002001681823CAB2103AD1
:100D2000B2FBF3F2054B6FF30901032A9B5CC36529
:100D300000D9091D816508467047000010A500080C
:100D400010B583694FF0C074826A0146002053B128
:100D5000B3F5005F15D072B1012A0CD0022A0AD077
:100D6000032A09D104E01AB1012A06D0022A03D1CC
:100D7000C96AC90100D5012010BDC96AA142FAD0D3
:100D800010BD002AF7D0012AF2D0022AF3D0032A9C
:100D9000F3D010BD00214FEA010210B500EB820331
:100DA000521C0F2AC3F88013F8D300224FF40073AB
:100DB0008418521C9A4284F81C11F9D30122017044
:100DC000402341708270C0F8BC1302768371417673
:100DD00080F81C1380F81D23002010BD2DE9F74F6B
:100DE00029480026DFF89CA0006800EB40000AEBD1
:100DF000800080688588C788E81D834620F007004A
:100E0000401B00F0FF0939E04FEADB01029801299D
:100E100001FB060009D0022909D0017842788378C5
:100E2000080440EA0220184303E0007801E000884B
:100E300040BA002480461AE02A1B02EB0901012077
:100E4000491E884010EA080F009800EB04020E4883
:100E5000016890B201EB410202D05AF8222002E070
:100E60000AEB82014A680199FFF7A4FB641CAC42BB
:100E7000E2D30198401C80B20190761CBE42C3D3DD
:100E8000BDE8FE8FCC3100203400002070470022E6
:100E9000AFF300800E4B70B505465C7A0120002C44
:100EA00014D15E7A03F108009C555E7A03EB860646
:100EB00075605D7A2A54587A421C5A723A232F225E
:100EC000303008704B7020468A70CC7070BD0000C6
:100ED00024330020F0B5D1E90125D1E90343D1E95C
:100EE00005762A43D1F800C044EA0304D1E9073566
:100EF00042EA0402496A42EA0702BCF1010F42EAEF
:100F0000060208D004681A432A430A43E30BDB03B2
:100F10001A4302600BE0066844682B4326F4F84548
:100F200029430B4303606FF30E0422434260002009
:100F3000F0BD426942EA410141610020704738B585
:100F400091E81C00C9686FF01F051A4305EB4414B3
:100F500044EA41210A4300920261002038BD0000AA
:100F60002DE9F043914691E81C006FF00F05521EE9
:100F70002E0105EB03131A430B7E06EB04268C8A25
:100F80002F034FEA054C0D8A32434FF07F4808EBA0
:100F90000366CB68B9F1010F07EB05450CEB045470
:100FA0000CD081683F1107EB03331A432A432243D5
:100FB000324301F070410A43826011E08168DFF83A
:100FC00028C0C7681B03A3F5805323432A4301EAC3
:100FD0000C0132430B43836007F070442243C2602C
:100FE0000020BDE8F0830000FF0F0FFF90F82020E5
:100FF000012A07D0022A05D0416A41F480214162CA
:1010000001207047006842690A434261002070472E
:1010100030B590F82020012A07D0022A05D0416A75
:1010200041F480214162012030BD3B480122D0F8CB
:10103000003243F00103C0F80032D0F8003223F44C
:101040007C53C0F80032D0F800324C6A43EA0423E3
:10105000C0F80032D0F81C320C7D04F01F04A2400E
:101060009343C0F81C32CB69B3B9D0F80C32934328
:10107000C0F80C328C894B684D6964F31F4300EB58
:10108000C504C4F840320C890B684D6964F31F43F2
:1010900000EBC504C4F84432CB69012B16D1D0F85B
:1010A0000C321343C0F80C320C884B684D6964F362
:1010B0001F4300EBC504C4F840320C89CB684D696E
:1010C00064F31F4300EBC504C4F844328B69002B62
:1010D000D0F804320ED01343C0F804320B69002B51
:1010E000D0F8143208D01343C0F81432096A012929
:1010F00004D008E09343EFE79343F5E7D0F81C12E0
:101100001143C0F81C12D0F8001221F00101C0F800
:101110000012002030BD0000006400407047000055
:10112000F0B590F82040012C05D0022C03D0416A84
:1011300041F4802166E0046800295ED02469A40798
:101140005DD005684FF4D87404EB01142D5915F0E7
:101150000405956005682D5957D0ED08C2F8045074
:1011600007684FF4DA754FF4DC7C4FF4DE763C59B7
:10117000002905EB0115C4F34007D7600CEB0114FF
:1011800006EB01110668765906F00F06166106682F
:101190007659C6F307269661066875594FEA1545D4
:1011A0005561026812591A70026812594FEA1222E8
:1011B0005A70026812594FEA12429A700268125924
:1011C0004FEA1262DA70026852581A710268525875
:1011D0004FEA12225A71026852584FEA12429A712B
:1011E000026851584FEA1161D971006810D0016945
:1011F00041F0200101610020F0BDE4689FE7416AF1
:1012000041F4001141620120F0BD6D0D1560A7E7AA
:10121000C16841F02001C160EDE72DE9F05F0546AE
:10122000006800244669D0F804908768D0F80CB0B4
:10123000D0F810A0F207D0F8188048D0F90714D0E1
:1012400001218160BA0703D5284600F0DEF90CE0E1
:10125000780702D54FF4006407E0380702D54FF451
:10126000805402E0284600F0CFF9F80516D528682A
:10127000BA054FF48071816003D5284600F0C7F9A4
:101280000CE0780502D544F4005407E0380502D597
:1012900044F4804402E0284600F0B8F9F80316D57B
:1012A0002868BA034FF48031816003D5284600F0E6
:1012B000B0F90CE0780302D544F4004407E03803A9
:1012C00002D544F4803402E0284600F0A1F930074A
:1012D00007D55FEACB6004D52968102044F4007478
:1012E000C86070074FF0080707D55FEA0B7004D598
:1012F0002868C760284600F055F9B00706D5286869
:10130000C068800702D0284600F04DF9700607D566
:101310005FEACA6004D52968102044F4806408613B
:10132000B00607D55FEA0A7004D528680761284629
:1013300000F03AF9F00606D528680069800702D067
:10134000284600F032F9B00308D55FEAC96005D538
:10135000296810204860284600F028F9F00307D5D6
:101360005FEA097004D528684760284600F052F902
:10137000300446D55FEA497040D5F00504D55FEAF0
:10138000C87001D044F00104B00504D55FEA88704C
:1013900001D544F00204700504D55FEA487001D518
:1013A00044F00404300529D518F0700F26D008F059
:1013B0007000402815D006DC102809D020280AD05B
:1013C000302816D10AE050280ED0602811D10EE046
:1013D00044F008040DE044F010040AE044F0200456
:1013E00007E044F0400404E044F0800401E044F4E9
:1013F00080742868816921F0700181612968042066
:101400004860002C05D0686A204368622846FFF7D0
:1014100085FEBDE8F09F70B5040003D094F820006D
:1014200010B104E0012070BD204600F081F8206872
:10143000016821F00201016000F068FD0526054603
:1014400004E000F063FD401B0A2811D820684068C2
:101450008007F6D42068016841F00101016000F0C6
:1014600055FD05460BE000F051FD401B0A2806D94A
:10147000606A40F40030606284F82060D2E720683F
:101480004068C007EFD0207E0128206801683DD069
:1014900021F080010160607E01282068016838D059
:1014A00021F040010160A07E01282068016833D04E
:1014B00021F020010160E07E0128206801682ED023
:1014C00041F010010160207F01282068016829D0C7
:1014D00021F008010160607F01282068016824D0A4
:1014E00021F004010160D4E90110D4E903326569F7
:1014F000491E184323682A43104300220843D86139
:101500000121626284F82010104670BD41F0800114
:10151000C0E741F04001C5E741F02001CAE721F0F2
:101520001001CFE741F00801D4E741F00401D9E709
:1015300010B586B0044614216846FEF70DFF164923
:101540002068884226D11548016841F00071016089
:10155000006800F00070059010481038016841F0F4
:101560000201016000680221002200F002000590E3
:10157000032309244FF440708DE81F000848694692
:1015800000F0D2FB00220521142001F00DFA1420F6
:1015900001F0FCF906B010BD006400404038024084
:1015A0000004024070477047704770477047000062
:1015B00070B5044690F82000012804D0606A40F419
:1015C0000020606218E0022084F820002068016892
:1015D00021F00101016000F099FC05460EE000BF1A
:1015E00000F094FC401B0A2808D9616A052041F4E8
:1015F0000031616284F82000012070BD20684068DD
:10160000C007EDD1606270BD70477047704770478A
:10161000704770477047F0B50126044600201E232E
:1016200001E05B1E05D303F01F0706FA07F50D4224
:10163000F7D072B1082A0AD0102A05D0182A01D191
:10164000072B06D30120F0BD082BFBD201E0102BA5
:10165000F8D22368596121688B6823F0180313437B
:101660008B60F0BD10B5040010D0607F20B9002061
:101670002077204600F032F821790220607739B1D6
:10168000D4E902122046FFF7C6FF48B1012010BD81
:101690002168114848612068816821F01801816043
:1016A0006079A0B12168206908610122206863691E
:1016B000816821F06001194381602068A369816815
:1016C00021F08001194381606277002010BD2168FC
:1016D0004FF0FF30E8E70000B71DC10408B500680F
:1016E0000649884208D10648016841F480510160EA
:1016F000006800F48050009008BD000000300240F7
:101700003038024070B590F83820012A23D0244C9C
:10171000012680F83860022300EB011280F839308E
:10172000158CD36918320A2B43EA054515D0092BCD
:1017300013D0137B45EA0363056899B1E969A143B6
:101740001943E961016813680B6151680A291BD0CC
:10175000092919D01DE0022070BDD36803F07F4332
:101760002B43E9E7696AA143194369620168136879
:101770008B6151680A2901D009290AD1D168026810
:1017800021F07F41916204E0D168026821F07F413D
:101790001162002180F8396080F83810084670BD69
:1017A0000F0003FF70B5040004D094F83900002541
:1017B00010B106E0012070BD204684F8385000F0DA
:1017C0001FF8022084F83900D4E9000301210268DF
:1017D00022F440321A4302602068A368426B22F070
:1017E00007021A4342632068E368026C6FF30D023C
:1017F0001A430264E56384F83910002070BD0000CC
:1018000008B500680649884208D10648016841F4D5
:1018100000010160006800F40000009008BD0000B5
:1018200000B00240303802402DE9F843002604465B
:1018300004270D4600964FF0030800680068C007B3
:1018400026D000F063FB81461EE04068009010F057
:10185000210F10D00098800603D5E06B40F0020005
:10186000E0630098C00703D0E06B40F00100E06344
:101870002168212035E0681C06D000F047FBA0EB72
:101880000900A8424DD8A5B3206841688907DCD576
:101890002068C169406A01F0200100F0200008437F
:1018A00035D000F033FB81462DE04068009010F009
:1018B000290F1FD00098000703D5E06B40F004000B
:1018C000E0630098800603D5E06B40F00200E0631F
:1018D0000098C00703D0E06B40F00100E06321688E
:1018E0002920886084F83970012084F83860BDE8C8
:1018F000F88316E0681C06D000F008FBA0EB090096
:10190000A8420ED86DB120684168C906CDD52268BD
:1019100012210120916084F83900002084F8386099
:10192000E5E7E16B84F8386041F02001E16384F879
:1019300039800320DBE7F8B50446069894F8385060
:10194000012D10D0012684F83860022584F8395022
:1019500000902046FFF78AF92068016841F00101F4
:1019600001600020F8BD0220F8BD70B504002BD046
:1019700094F83500022826D020680025212201682D
:1019800021F0010101602068056020684560206841
:1019900085602068C5602068056120684261204636
:1019A000FFF7BAF994F85C203F2191408160E5632C
:1019B00025646564A564E5642565656584F835502E
:1019C000002084F8345070BD012070BD2DE9F8432B
:1019D00004464FF00009644B0820CDF800904FF406
:1019E0001652A56D94F85C101B682E68B3FBF2F7D5
:1019F00000FA01F131420FD021680A6852070BD575
:101A00000A6822F004020A6094F85C108840A8601A
:101A1000606D40F00100606594F85C104FF00108C3
:101A200008FA01F0304208D021684969090604D556
:101A3000A860606D40F00200606594F85C100420BE
:101A40008840304208D021680968890704D5A86019
:101A5000606D40F00400606594F85C1010208840D0
:101A6000304218D021680968090714D5A860206899
:101A70000168490304D50068000308D5A16C07E09C
:101A80000168C90503D4016821F008010160216CD7
:101A900009B12046884794F85C10202088403042E5
:101AA00031D021680968C9062DD5A86094F83500A1
:101AB00005282068016806D0490347D5006800035F
:101AC0001DD4616C1CE021F01601016020684169A1
:101AD00021F080014161206C08B9A06C20B1206820
:101AE000016821F00801016094F85C303F229A40BF
:101AF000AA6084F8349084F83580216D1FE0E16B92
:101B000009B120468847606D00282BD0606DC00762
:101B100014D0052084F835002068016821F0010107
:101B200001600098401C0090B84203D8206800680B
:101B3000C007F6D184F8349084F83580E16C002930
:101B400010D001B02046BDE8F04308470168C90540
:101B5000D5D4036823F01003036084F8349084F82C
:101B60003580CCE7BDE8F883300000202DE9F04750
:101B7000044600F0CBF9054664B14FF0000984F843
:101B80003490022184F835102068016821F00101A9
:101B900001600EE00120BDE8F08700BF00F0B6F95B
:101BA000401B052805D920216165032084F83500F4
:101BB000F1E720680068C007F0D1D4E90020D4E93B
:101BC0000251D4E9043C284304F1180519430843A1
:101BD000116895E8E00140EA0C001C4B28431940CD
:101BE00040EA060040EA0700B8F1040F40EA0100AD
:101BF00003D1D4E90B131943084310602068012670
:101C0000656A4069042D20F0070045EA00050CD103
:101C1000D4E90A01054341B12046FFF791F820B10C
:101C20004020606584F83560B4E72068456120464F
:101C3000FFF772F894F85C303F229A408260C4F853
:101C4000549084F835600020A5E700003F8010F034
:101C500070B5044600F05AF90546601C02D00448ED
:101C60000078044400F052F9401BA042FAD370BD42
:101C700024000020F0B587B014216846FEF76CFB05
:101C80002148016800293CD1012101601F480168F9
:101C900041F001010160006802240025694600F05E
:101CA0000100059003264FF683700C278DE8F100A4
:101CB000174800F039F848F2331069468DE8F10012
:101CC000144800F031F84CF2037069468DE8F100D9
:101CD000114800F029F84FF63F0069468DE8F10001
:101CE0000E4800F021F8282069468DE8F1000C48E4
:101CF00000F01AF8082069468DE8F100094800F064
:101D000013F807B0F0BD000018000020383802407A
:101D10000010024000180240000C02400014024073
:101D2000001C0240000802402DE9F84FDFF89CE15A
:101D300000224FF001084FF0030B4FF00F0A00BFD5
:101D40000B6808FA02F42340A34271D14D68022DBA
:101D500001D0122D0FD1D5080E69570700EB85056C
:101D6000A9462D6AFF0E0AFA07FCBE4025EA0C05BB
:101D70002E43C9F820600F79550006680BFA05FC60
:101D800007F0030726EA0C06AF40374307604E68AA
:101D9000012E05D0022E03D0112E01D0122E0ED10D
:101DA0008668CF6826EA0C06AF40374387604668EE
:101DB0000F79A643C7F30017974037434760C468BD
:101DC0008E6824EA0C04AE402643C6604C68E400EA
:101DD00075D53F4C256845F480452560246822F080
:101DE0000306950704F4804400943A4C2D0F2644D2
:101DF000D6F80848DFF8E0C00AFA05F7604524EA9B
:101E0000070401D100272EE0344FB84201D1012749
:101E100029E0334FB84201D1022724E0314FB842C4
:101E200001D103271FE0304FB84202D104271AE046
:101E300045E02E4FB84201D1052714E02C4FB8429F
:101E400001D106270FE02B4FB84201D107270AE046
:101E5000294FB84201D1082705E0284FB84201D1E7
:101E6000092700E00A27AF4027437546C6F80878DF
:101E70004E68DEF80040F60324EA030400D51C4354
:101E8000124E2C60361D4D683468AD0324EA0304FD
:101E900000D51C430D4F346008374D683C68ED0297
:101EA00024EA030400D51C43084D3C600C354E6801
:101EB0002C68B60224EA030400D51C432C60521C93
:101EC000102AFFF43DAFBDE8F88F0000003C014050
:101ED000443802400030014000000240000402404B
:101EE00000080240000C02400010024000140240B2
:101EF00000180240001C0240002002400024024062
:101F00000AB1816170470904FBE70000014880685D
:101F10007047000024000020D0F8C00203F003BA8C
:101F2000D0F8C00203F01EBA006804F061BC00687B
:101F300004F062BC01EB810100EBC10090F85C0091
:101F4000704701EB810100EBC100C06C704710B518
:101F5000044690F8B802012809D0012084F8B8029C
:101F6000206804F054FC002084F8B80210BD022060
:101F700010BD2DE9FE4F04469A46DDE90D6094F848
:101F8000B832DDF83090012B1CD001EB81034FF00B
:101F9000010B84F8B8B2002504EBC3035FEA0268C2
:101FA00002F07F0C83F83D5083F838A0A3F840007E
:101FB00083F8391083F83F6083F83AC005D583F879
:101FC0003BB004E00220BDE8FE8F83F83B5083F86D
:101FD0003C905346CDF80090CDE90160206804F0B4
:101FE00077FC84F8B852EEE7D0F8C00203F04ABAA2
:101FF0002DE9F04101EB81044FF0020600EBC4042F
:10200000DDF818E0DDE907C7BEF1000F84F83B20DA
:1020100084F83F300CD084F8426000BF4FF00005D8
:1020200053B1012B2BD0022B0FD0032B13D10CE07B
:10203000032584F84250F1E7BEF1010F0BD152B9EC
:10204000D7B9012284F8512003E0AAB194F85020B6
:10205000AAB184F84260C4E911C784F85C50E56411
:1020600084F8391004F1380184F85D50027C00686E
:10207000BDE8F04104F0AEBC94F85120E8E784F8E4
:102080004250E8E72DE9F04104460068064604F0B6
:10209000BAFB01286FD1206804F0C2FD00286AD085
:1020A000206804F0BDFD800203D521684FF40010C4
:1020B0004861206804F0B4FDC00203D521684FF4E4
:1020C00080104861206804F0ABFD400103D5216811
:1020D0004FF080604861206804F0A2FD800702D5BF
:1020E000216802204861206804F09AFD800010D524
:1020F000D6F8400420F02E00C6F840042046FFF732
:102100000FFF2068012104F06FFD21684FF000509F
:102110004861206804F084FDC00102D5204601F02A
:1021200066FE206804F07CFD000705D5204600F01F
:10213000D0F8216808204861206804F071FD800112
:1021400024D5206804F042FC002507464FF0010822
:1021500015E000BF05F00F0108FA01F038420DD07C
:1021600006EB4510D0F80005E9B20004204603D57F
:1021700001F004FC02E01CE001F01AFD6D1CA068F7
:10218000A842E7D821684FF000704861206804F049
:1021900047FDC043C0060CD42068816921F01001BE
:1021A0008161204601F080FE2068816941F01001C4
:1021B0008161BDE8F08130B504008BB003D094F8A4
:1021C000B90218B108E001200BB030BD002084F83E
:1021D000B802204600F024F8032084F8B9022068F1
:1021E00004F0B0FA04F11001684628220D46FEF70B
:1021F0009AF894E80F0004F053FA2068012104F0E3
:102200003AFD282229466846FEF78DF894E80F002B
:1022100004F088FC012084F8B9020020D4E7000013
:1022200030B587B0044614216846FEF795F820685B
:10223000B0F1A04F3BD11F48016841F0010101609E
:102240000068002402211C4D00F0010005904FF4AD
:10225000C0500A238DE8130003226946CDE9032309
:102260002846FFF761FD68156946CDE90004284658
:102270000294FFF759FD0F48001D016841F08001ED
:102280000160006800F0800005900A481430016881
:1022900041F48041016000680022052100F4804083
:1022A0000590432000F080FB432000F06FFB07B057
:1022B00030BD00003038024000000240D0F8C002BB
:1022C00003F0F9B8D0F8C00203F0F9B8006804F0E0
:1022D000B9BCD0F8C00203F09EB810B5044690F81F
:1022E000B80201280DD0012084F8B802206804F05B
:1022F00057FA2068012104F03DFA002084F8B80262
:1023000010BD022010BD10B5044690F8B802012897
:1023100009D0012084F8B802206804F0C3FC002032
:1023200084F8B80210BD022010BD30B590F84120ED
:10233000202A24D190F84020012A20D0012380F8BF
:102340004030242280F841202023002402681568B0
:1023500025F0010515600268156825F480551560A3
:10236000026815680D43156001680A6842F00102B1
:102370000A6080F8413080F84040002030BD0220E3
:1023800030BD30B590F84120202A22D190F840206D
:10239000012A1ED0012380F84030242280F84120F9
:1023A000202400250268136823F0010313600268EB
:1023B000136823F4706343EA0121116001680A681D
:1023C00042F001020A6080F8414080F8405000204D
:1023D00030BD022030BD000070B5040004D094F878
:1023E0004100002510B106E0012070BD204684F8B0
:1023F000405000F04DF8242084F841002068016826
:1024000021F001010160D4E9001020F07060086142
:102410002068816821F400418160E068216801281A
:10242000A06806D040F404408860E068022803D029
:1024300006E040F40040F7E721684FF40060486090
:1024400020212068114A4368134343602068C26812
:1024500022F40042C26054F8106B0DCC104340EAE5
:102460000320F06054F81C3CD4E9000210431860CB
:1024700054F81C0D026842F001020260656484F8A1
:102480004110256384F84250002070BD0080000296
:102490002DE9F04387B0074614216846FDF75CFF3D
:1024A0002A49386888424ED12948016841F08001A4
:1024B000016000681221012200F0800005900323D2
:1024C00004244FF4C0708DE81F0022486946FFF7CE
:1024D0002BFC1F481030016841F4000101600068C6
:1024E00000241D4E4FF480691C4A00F40000059042
:1024F0004FF0C06830463260C6E90184C6E903493E
:102500007461B461F46134627462FFF72FFB08B147
:10251000FEF7BCFC124D4023FE6305F10800B763D3
:102520000E4A80E818026C613032AC612846EC61DA
:102530002C626C62C5E90028FFF718FB08B1FEF7B2
:10254000A5FCBD63AF6307B0BDE8F083005C00404D
:1025500030380240001C0240D80300204060024096
:102560003804002002488168027811448160704775
:1025700024000020094810B5016841F40071016091
:10258000016841F480710160032000F02DFA002001
:1025900000F006F800F0DEF9002010BD003C02401B
:1025A00010B5002201461C2088B000F0FDF91C2067
:1025B00000F0ECF91448016841F001010160006885
:1025C00005A900F001000690684600F071FD00F0DA
:1025D0008FFD0E494000002240F2E733B0FBF1F1DD
:1025E0000B484FF080440460C0E90332491EC0E943
:1025F000011200F0EBFF10B1012008B010BD04483B
:1026000001F03CF8F9E700004038024040420F007A
:10261000203000202DE9F041044690F8A000164635
:102620000F4601281DD0012584F8A050022084F80F
:10263000A10006EB860000EBC600342204EB80000C
:102640003830FDF770FE32463946204601F0ACFCCA
:10265000216800204D6284F8A15084F8A000BDE8F4
:10266000F0810220FBE7704790F8A10070472DE948
:10267000F0410446006800274FF00408856B466B64
:10268000690715D5710713D5426B22F00402426326
:102690002068C0F83C80D4F8A40040F00100C4F8E1
:1026A000A40084F8A180204684F8A070FFF7DBFF27
:1026B000A80716D5B00714D520680222436B23F073
:1026C000020343632068C263D4F8A40040F0020010
:1026D000C4F8A40084F8A180204684F8A070FFF715
:1026E000C2FF05EA06004FF00108C0070ED02168BE
:1026F0004A6B22F001024A632168C1F83C8084F8E9
:10270000A180204684F8A07000F092F8280710D528
:1027100030070ED520680822436B23F0080343637B
:102720002068C26384F8A180204684F8A07000F07D
:102730000FF9BDE8F08100002DE9F041040004D05C
:1027400094F8A100002518B107E00120BDE8F08150
:10275000204684F8A05000F06DF83448022184F837
:10276000A110012202CC8B6923F070438B6194E8A5
:102770004A001943E3681E4354F8043D31439E69FF
:102780003143996121688B6803408B602168A68A78
:10279000A7698B683B4343EA06438B602168CB689B
:1027A0000340CB602168A38B276ACE683E4346EA8C
:1027B0000346CE6021680B6903400B612368A68C39
:1027C000A76A1969394341EA0641196121684B69D1
:1027D00003404B612068A38D266B4169314341EA78
:1027E00003414161236894F8351094F83600DE6A9D
:1027F000000406F07F46DE62236840EA012094F878
:102800003460D96A31430143D9622068416B41F099
:10281000060141632068816941F001018161C4F8CA
:10282000A45084F8A120002090E7000000F800F0F8
:102830007047000070B586B0044614216846FDF765
:102840008BFD3C492068884272D13B48016841F0C9
:1028500080610160006800F080600590364814389F
:10286000016841F010010160016801F0100105915B
:10287000016841F400710160016801F40071059183
:10288000016841F480610160016801F48061059193
:10289000016841F040010160016801F040010591CB
:1028A000016841F480710160006800240E266946C9
:1028B00000F4807005901020009002251F48CDE99B
:1028C0000154CDE90346FFF72FFA4EF6FF70009052
:1028D000CDE901541A486946CDE90346FFF724FAC9
:1028E000F7200090CDE9015416486946CDE903462A
:1028F000FFF71AFA0921E8020090CDE90154CDE969
:10290000034111486946FFF70FFA4FF44640009023
:10291000CDE901540D486946CDE90346FFF704FAB5
:1029200000220521582000F03FF8582000F02EF832
:1029300006B070BD006801404438024000100240FB
:1029400000240240002802400018024000200240FB
:10295000704700000C4882B0016841F0805101606E
:10296000006800F0805000900748001D016841F4A5
:1029700080410160006800220F2100F48040009037
:10298000901E02B000F010B840380240002809DB69
:10299000410900F01F028900012001F1E02190406F
:1029A000C1F80001704700000E4BF0B41B680D46E3
:1029B000C3F30223C3F10706042E00D90426191D10
:1029C000072901D2002300E0DB1E012404FA06F1EE
:1029D0009C40491E2940641E994014402143F0BC8C
:1029E00004F0C6B90CED00E0064900F0070210B58E
:1029F0004FF6FF040868044B204040EA02201843C9
:102A0000086010BD0CED00E00000FA051848F8B5AC
:102A1000016841F0805101600068164C00F0805060
:102A20000090206840F480302060FFF76FFA4FF488
:102A30007A76054605E000BFFFF768FA401BB04212
:102A40000FD86068C003F7D5206840F400302060DC
:102A5000FFF75CFA054606E0FFF758FA401BB04264
:102A600001D90320F8BD60688003F5D50020F8BDCA
:102A700040380240007000400248016841F4807113
:102A800001607047007000402DE9F84F044600785F
:102A9000DFF824944FF000063746C0070ED0D9F86F
:102AA000001021F40001C9F80010D9F80010626B81
:102AB0001143C9F80010606B00B90126FE4D206873
:102AC000843500030ED5E16B286820F440100843DC
:102AD0002860E06BB0F5801F01D010B102E0012644
:102AE00000E0012720684FF4800BC0020CD5216C58
:102AF000286820F4400008432860206C584501D124
:102B0000012601E000B901272068C10100D5012696
:102B1000800666D5E8483830016841F08051016090
:102B20000068DFF898A300F080500090DAF80010F9
:102B300041F48071CAF80010FFF7E8F9804605E01B
:102B4000FFF7E4F9A0EB080064287DD8DAF800006C
:102B5000C005F5D5DFF8608308F16808D8F80000F3
:102B600010F440702AD0218E01F44071814225D0AA
:102B7000D8F80010D8F8002021F4407142F48032D7
:102B8000C8F80020D8F8002022F48032C8F80020CD
:102B9000C8F80010D8F80000C0070FD0FFF7B6F94A
:102BA000824607E0FFF7B2F9A0EB0A0141F2883054
:102BB0008142CAD8D8F800008007F3D5206BC0F353
:102BC000012103297ED0D9F8001021F4F811C9F8A9
:102BD0000010228ED8F80010C2F30B021143C8F87F
:102BE00000102078C00607D5286820F08070286083
:102BF0002868A16B084328602188AF4888304904C1
:102C000005D5626E016821F44031114301602188CD
:102C1000090405D5A26E016821F440211143016029
:102C20002168C90305D5E26E016821F44011114302
:102C300001602168890305D5226F016821F44001F4
:102C400011430160217800E018E1490605D5626C66
:102C5000016821F00301114301602178090605D5BF
:102C6000A26C016821F00C01114301602188C905A3
:102C700005D5E26C016821F0300111430160218823
:102C8000890505D5226D016821F0C001114301605D
:102C90002188490505D5626D016821F44071114311
:102CA00001602188090505D5A26D016821F4406104
:102CB000114301602188C90407D5E26D016821F440
:102CC000405100E041E0114301602188890405D5AD
:102CD000226E016821F440411143016021684902DC
:102CE00005D5A26F016821F0806111430160216860
:102CF0004FF0006A890209D5E26F016821F0006196
:102D000011430160E16F514500D1012721680A0795
:102D100000D50127490305D5626F016821F0407194
:102D2000114301602168090206D5D4F880200168AA
:102D300021F0805111430160DFF88491012E0ED003
:102D40002068B0F1007F0AD08FE05E4AD9F80030E9
:102D5000104023F4F8120243C9F8002039E7D9F8EB
:102D600000004E4620F08060C9F80000FFF7CEF862
:102D7000804605E0FFF7CAF8A0EB080064287DD87C
:102D800030680001F6D421784B487C30C90712D056
:102D9000616B81B9237A62680168D0F800C0920142
:102DA000C1F3014142EA0142CCF3036142EA01610D
:102DB00041EA0371016021680A0303D5E26BB2F5B1
:102DC000801F04D0C9021AD5216C594517D16368F8
:102DD000016894F80CC002689B01C1F3014143EA09
:102DE0000141C2F3027241EA0C6141EA02710160E1
:102DF0002968626A21F01F01521E1143296021686F
:102E0000C90110D5238A62680168D0F800C0920118
:102E1000C1F3036142EA034242EA0162CCF3027168
:102E200042EA01710160216889010CD56168228A3A
:102E3000237B94F808C0890141EA024141EA036119
:102E400041EA0C7101603168B04641F08061316047
:102E5000FFF75CF8064604E0FFF758F8801B64288B
:102E60000CD8D8F800000001F6D56FB3D9F80000EF
:102E70004E4620F08050C9F8000000E079E0FFF7EE
:102E800045F8074605E000BFFFF740F8C01B64287F
:102E90006FD83068C0438000F6D50748216880307D
:102EA0000A0301D5E26B1AB1C90225D5216C19BB01
:102EB00063690168277E08E008380240007000401E
:102EC00000380240FFFCFF0F5AE00268C1F30141E5
:102ED0009B0143EA0143C2F3027143EA076242EAFB
:102EE0000171016029686FF0FF03A26A21F4F851B3
:102EF00003EB0222114329602168890212D5E16F98
:102F000051450FD1238C6269016807689201C1F3B2
:102F1000036142EA034242EA0162C7F3027142EAF4
:102F2000017101602178090716D561690268D0F83E
:102F300000C08B01277FC2F30362CCF3014143EA57
:102F4000014141EA026141EA077101602868E16AD2
:102F500020F4403008432860306840F080503060F2
:102F6000FEF7D4FF044607E0FEF7D0FF001B6428FD
:102F700002D90320BDE8F88F3068C0438000F3D445
:102F80000020F7E72DE9F04705000F4663D0444ED7
:102F9000306800F00F00B84209D2306820F00F000E
:102FA00038433060306800F00F00B84253D12868D1
:102FB0003C4C810712D5400703D5206840F4E0500F
:102FC00020602878000703D5206840F46040206026
:102FD000A968206820F0F000084320602878C00726
:102FE0002AD0304968680839012810D009680228B9
:102FF00010D0890700292EDA216821F0030101434E
:103000002160FEF783FF804641F288390DE00968B0
:103010008903EFE78901EDE7FEF778FFA0EB0801F0
:10302000494502D90320BDE8F0876868216801F0AE
:103030000C01B1EB800FEFD1306800F00F00B84207
:103040000BD9306820F00F0038433060306800F052
:103050000F00B84201D00120E5E72878400705D5E8
:10306000E968206820F4E0500843206028780007D1
:1030700006D52869216821F4604141EAC00020603A
:1030800000F056F82168084AC1F30311515CC840AA
:10309000064908600020FFF783FA0020C3E700001C
:1030A000003C02400838024018A50008300000200B
:1030B0000D4A0F2330B503604FF4E0540B4B1568F5
:1030C00005F003054560156805F0F0058560156895
:1030D00005F4E055C560126804EAD202026118687E
:1030E00000F00F00086030BD08380240003C02408C
:1030F0000449054809680068044AC1F38221515C0B
:10310000C8407047083802403000002028A5000859
:103110000449054809680068044AC1F34231515C1A
:10312000C8407047083802403000002028A5000839
:10313000154910B51548096811F00C0213D014494F
:10314000042A0FD0082A0ED10F4C241F22682368AE
:1031500002F03F025B0207D52068C0F38810A0FB95
:10316000010106E0084610BD2168C1F38811A1FBEA
:1031700000010023FDF7A6F82168C1F30141491CB5
:103180004900B0FBF1F010BD083802400024F40003
:1031900040787D012DE9F84F05004FF000076ED013
:1031A0002878DFF81C93A9F1040AC007AAF10404E7
:1031B0004CD0D9F800104846C1F38101012908D04C
:1031C0000068C0F3810002280AD1DAF8000040024A
:1031D00006D52068800339D568680028DFD035E03F
:1031E0006868B0F5803F0BD010B1B0F5A02F11D0BA
:1031F000206820F480302060206820F4802002E0E5
:10320000206840F480302060686890B1FEF77EFE50
:1032100006460AE0206840F480202060F0E700BF06
:10322000FEF774FE801B642872D820688003F7D5EF
:103230000CE0FEF76BFE064605E000BFFEF766FEFB
:10324000801B6428F0D820688003F7D42878800792
:1032500042D5D9F80010484611F00C0F08D000688C
:10326000C0F3810002280BD1DAF80000400207D435
:103270002068800718D5E868012800D114E01CE117
:10328000E8680028206817D040F001002060FEF7B1
:103290003DFE064605E000BFFEF738FE801B022813
:1032A000C2D820688007F7D52869216821F0F80185
:1032B00041EAC00020600FE020F001002060FEF72E
:1032C00025FE064605E000BFFEF720FE801B022813
:1032D0001ED820688007F7D42878000729D57848B9
:1032E00069696C3000298046016812D041F0010103
:1032F0000160FEF70BFE064605E000BFFEF706FE86
:10330000801B022804D8D8F800008007F6D510E00A
:1033100089E021F001010160FEF7F8FD064604E0B6
:10332000FEF7F4FD801B02287DD8D8F80000800746
:10333000F6D4287840076BD5DFF8848108F1380887
:10334000D8F80000C0000BD4D8F8001041F080512C
:10335000C8F80010D8F80000012700F08050009055
:1033600058480168C90512D40168834641F4807148
:103370000160FEF7CBFD064605E000BFFEF7C6FD87
:10338000801B64284FD8DBF80000C005F6D54C4EF2
:10339000A868683601280AD008B1052811D030681D
:1033A00020F001003060306820F0040002E0306856
:1033B00040F001003060A868A0B1FEF7A7FD834689
:1033C0000CE0306840F004003060F0E7FEF79EFD4E
:1033D000A0EB0B0141F28830814266D8306880074B
:1033E000F4D50EE0FEF792FD834607E0FEF78EFD72
:1033F000A0EB0B0141F28830814256D8306880073B
:10340000F4D42FB1D8F8001021F08051C8F8001082
:10341000A869C8B3D9F80010C1F3810102294CD0C2
:103420000228206800E040E020F08070206003D097
:10343000FEF76CFD05463BE0FEF768FD064604E03E
:10344000FEF764FD801B02282FD820688001F7D486
:10345000D5E90962D5E907011B4B570895F82C20DF
:10346000084303EB074343EA8611084340EA02603E
:1034700040F00050CAF80000206840F080702060E2
:10348000FEF744FD054606E015E000BFFEF73EFDF1
:10349000401B022809D820688001F7D50BE000BF47
:1034A000FEF734FD401B022802D90320BDE8F88F47
:1034B00020688001F4D40020F8E70120F6E700003E
:1034C00008380240007000400000FFFF70B50400A3
:1034D0000D4603D094F82C0010B107E0012070BD18
:1034E000002084F82D00204600F011F8022084F816
:1034F0002C002068211DFDF7EDFCD4E900022946CF
:10350000FDF72EFD012084F82C00002070BDFEF791
:10351000B1BB10B5044690F82C00022809D0022057
:1035200084F82C002068FDF704FD012084F82C00AD
:10353000002010BD70B5044690F82C000D460228FE
:103540000DD0022084F82C002068FDF7F8FC2868D4
:10355000022805D05FF0010084F82C00002070BD27
:103560000520F9E7704770477047000070B590F884
:103570003C20012A24D0134C012580F83C50022223
:1035800080F83D2002685368A242966802D00E4C33
:10359000A24203D14C6823F4700323430C6823F048
:1035A000700389681C435460002326F0800602687B
:1035B0003143916080F83D5080F83C30184670BD32
:1035C000022070BD000001400004014010B504005D
:1035D00003D094F83D0010B107E0012010BD002099
:1035E00084F83C00204600F00DF8022084F83D00ED
:1035F0002068211D01F01CF9012084F83D00002005
:1036000010BD0000F8B519490546006888422CD164
:103610001748016841F01001016000680021154C55
:103620004FF0606200F01000009013482060C4E981
:103630000121031504F10C02C6142046DF0082E8C4
:10364000CA00E16121626162FEF790FA08B1FDF7FC
:103650001DFC2C6200220521A5633620FFF7A4F98A
:10366000BDE8F8403620FFF791B9F8BD00100040E2
:103670004038024098040020286002400168094A4E
:10368000CB6843F00103CB600168886810400628CE
:1036900006D0B0F5803F03D0086840F00100086014
:1036A0000020704707000100704770B504460068AD
:1036B00000250169C943890715D4C168C943890731
:1036C00011D4EA1E026101212177206880698007F8
:1036D000204602D0FFF7E8FF04E000F0A7F82046FC
:1036E00000F0A5F8257720680169C943490717D478
:1036F000C168C943490713D402216FF00402026173
:1037000021772068806910F4407F204602D0FFF7BF
:10371000CBFF04E000F08AF8204600F088F8257717
:1037200020680169C943090716D4C168C94309075C
:1037300012D404216FF00802026121772068C06969
:103740008007204602D0FFF7AFFF04E000F06EF8DC
:10375000204600F06CF8257720680169C943C90646
:1037600017D4C168C943C90613D408216FF01002E9
:10377000026121772068C06910F4407F204602D0A2
:10378000FFF792FF04E000F051F8204600F04FF8F8
:10379000257720680169C943C90708D1C168C943B1
:1037A000C90704D1891E0161204600F041F8206854
:1037B0000169C943090609D4C168C943090605D48A
:1037C0006FF0800101612046FFF7CDFE206801699E
:1037D000C943C90509D4C168C943090605D46FF4B2
:1037E000807101612046FFF7BDFE20680169C94371
:1037F000490609D4C168C943490605D46FF04001A0
:103800000161204600F01BF820680169C943890660
:103810000BD4C168C943890607D46FF02001016148
:103820002046BDE87040FFF79FBE70BD70477047EF
:103830000068B0F1804F01D1FEF794BE7047704729
:1038400010B5040002D0606F10B107E0012010BD78
:10385000002084F87000204600F026F824206067DD
:103860002068016821F001010160204601F0C8F8DC
:103870000128ECD0606A10B1204601F03FF82068C2
:10388000416821F4904141602068816821F02A015B
:1038900081602068016841F0010101602046BDE8B7
:1038A000104001F08FB800002DE9F04387B00746C3
:1038B00014216846FCF750FD2A49386888424ED1E9
:1038C0002948016841F020010160006800F02000F3
:1038D000059025481438016841F004010160006832
:1038E0000024022100F004000590C02008238DE888
:1038F000130003221D48CDE903236946FEF714FA9D
:103900001B4E4FF480691B4A4FF0206830463260EE
:10391000C6E90184C6E903497461B461F4613462A3
:103920007462FEF723F908B1FDF7B0FA124D402397
:10393000FE6605F10800B7630E4A80E818026C6164
:103940007832AC612846EC612C626C62C5E90028D3
:10395000FEF70CF908B1FDF799FABD66AF6307B041
:10396000BDE8F083001401404438024000080240E2
:10397000F804002028640240580500202DE9F05F7B
:10398000074600680E464FF0040B00EB4114D4F8D4
:10399000082501EB86004FF0050A4FF0100807EBF1
:1039A000C005510708D5C4F808B5D4F80C0540F097
:1039B0000200C4F80C0534E0D4F80805800603D5ED
:1039C0002020C4F808052CE0D4F808054FF00809B9
:1039D000000710D5D4F80C3543F00203C4F80C35B9
:1039E00085F85DA0C4F80885C4F8089531463868A4
:1039F00002F00DFF15E0D4F80805400511D5D4F804
:103A00000C0540F00200C4F80C053868314602F09D
:103A1000FEFE4FF48062C4F8088585F85D90C4F816
:103A20000825D4F8080580050ED5D4F80C0540F01B
:103A30000200C4F80C05386804F5A164314602F0B0
:103A4000E6FE4FF4007090E0D4F808050021012252
:103A5000C00738D0386930B1D4F81035A86CC3F33A
:103A60001203C01AE86485F85D20A965C4F808252A
:103A700095F83F0020B1022802D003280FD01AE0A9
:103A8000D4F80C0540F00200C4F80C05386804F5C1
:103A9000A164314602F0BBFEC4F800800BE0D4F80C
:103AA000000540F00050C4F800053146384685F85E
:103AB0005C20FEF799FA95F8500080F0010085F837
:103AC0005000BDE8F09FD4F80805800736D5D4F83B
:103AD0000C05022320F00200C4F80C0595F85D00E7
:103AE000012808D0052809D006280AD0082808D0BF
:103AF000032820D016E085F85C2013E085F85CA050
:103B000010E0A86D401CA865032814D9A96585F8A4
:103B10005CB000BFD4F8000520F0804040F00040C9
:103B2000C4F80005C4F80835314695F85C203846DD
:103B3000FEF75AFAC5E785F85C30EBE7D4F80805DC
:103B4000000614D5D4F80C05062140F00200C4F894
:103B50000C05A86D04F5A164401CA86585F85D10EE
:103B60003146386802F053FE80202060A9E7D4F87F
:103B70000805C006A5D595F83F00032803D020B15D
:103B8000022802D011E0A96505E0A965386960B98D
:103B9000032085F85D00D4F80C0540F00200C4F85D
:103BA0000C053868314602F032FEC4F8088588E713
:103BB0002DE9F047026802EB4114D4F808254FF0D4
:103BC0000403520709D5C4F80835D4F80C0540F0B1
:103BD0000200C4F80C05BDE8F087D4F8086501EBD5
:103BE000810500224FF0020C00EBC505B60615D585
:103BF0002023C4F8083595F83D30012BEBD185F82A
:103C00003D2085F85CC0D4F80C2542F00202C4F8CF
:103C10000C250068BDE8F04702F0F9BDD4F808753E
:103C200001267F0611D585F85D3085F83D60AA65CF
:103C3000D4F80C2542F00202C4F80C25006804F503
:103C4000A16402F0E4FD402010E0D4F80875BF053F
:103C50000ED5D4F80C2542F00202C4F80C250068F9
:103C600004F5A16402F0D3FD4FF400702060B2E7C8
:103C7000D4F80875FF070FD0AA65D4F80C2542F0D8
:103C80000202C4F80C25006804F5A16402F0BFFD2F
:103C9000266085F85D609EE7D4F8088508274FF018
:103CA00005095FEA08780DD5C4F80875D4F80C2525
:103CB00042F00202C4F80C25006802F0A8FD85F865
:103CC0005D9088E7D4F808854FF0100A5FEAC8686D
:103CD00018D595F83D300327AA6585F85D7023B99E
:103CE00095F83C200AB985F83D60D4F80C2542F0DF
:103CF0000202C4F80C25006804F5A16402F087FDF7
:103D00005046B3E7D4F808855FEA08680FD5D4F8C1
:103D10000C2542F00202C4F80C25006804F5A164E9
:103D200002F075FD062185F85D1080209EE7D4F82D
:103D300008855FEA485812D5D4F80C2542F00202F3
:103D4000C4F80C25006804F5A16402F060FD4FF48E
:103D50008061C4F800A0216085F85D703BE7D4F86D
:103D60000875BF0797D5D4F80C7527F00207C4F87B
:103D70000C7595F85D70012F0AD0032F17D0042F12
:103D800015D0052F16D0062F17D0082F15D027E0F5
:103D900095F83F2085F85C60022A01D0032A1FD1E4
:103DA00095F8512082F0010285F8512018E085F83D
:103DB0005CC015E085F85C9012E0AE6D761CAE65D7
:103DC000032E03D9AA6585F85C3001E085F85CC054
:103DD000D4F8002522F0804242F00042C4F80025C9
:103DE000C4F808C595F85C20FEF7FEF8F3E67CB54C
:103DF00004680546D4F840040190D4F8400420F04B
:103E00002E000090019880070DD50198C00706D0BC
:103E1000A06920F00051A1612846FEF77DF80098C6
:103E200040F0020000900198000732D5009840F061
:103E300008000090019840071DD5A869022803D00A
:103E4000E86803280CD00FE00198C0F34140022835
:103E5000286803D0012102F0C7FE05E00221FAE73D
:103E60004EF66020C4F804042846FEF72BFA2846D4
:103E7000FEF752F80DE02846FEF720FAD4F8400489
:103E800020F02E00C4F840042868816941F00051F8
:103E9000816101988006009802D540F020000090D2
:103EA000C4F840047CBD00002DE9F04102460068E2
:103EB000016A074601F00F06C1F34343022BC1F329
:103EC0000A1426D1002C24D006EB860102EBC10592
:103ED000696C00291DD0224602F0A6FE6A6C07EB31
:103EE00046100D4922446A64EA6C2244EA64D0F820
:103EF00010250A420DD0D0F8001521F0804141F084
:103F00000041C0F8001595F8500080F0010085F8D8
:103F10005000BDE8F08100000000F81F2DE9F843D3
:103F200007461B480E461546DDE908184FF4403297
:103F30001C464260174A126802EB820303EBC2027E
:103F4000A0F1A80303EB8202926C022A00D00022A7
:103F50008260114A0260C1600D48FDF723FC002811
:103F600014D10B483946FDF7CDFB00280ED1084887
:103F70002B46324641460094FDF7DDFC002805D172
:103F8000BDE8F84302480A21FDF74EBCBDE8F883BE
:103F90008C3100203400002000B002400148FEF7C0
:103FA00066BB0000B40100202DE9FE4F8146006889
:103FB000882493468D888C2204EBCB178A46C368ED
:103FC0009421BE46C459C3F30B432B4404F47044FC
:103FD0001F04019702EBCB1240F80E4001EBCB130C
:103FE000DAF800709C214FF0AC0C01EBCB1440F2DE
:103FF000077102910CEBCB11D9F800C09825002075
:10400000CDF800C0A02605EBCB15DCF80CC006EB04
:10401000CB16CCF30B4C0CF1010C07EB0C08DDF8C4
:1040200000C0019F48EA07084CF80E80D9F80070DC
:10403000BAF80CC0B846FF68C7F30A0767444FEAEE
:10404000074E58F8027007F4704C48F802C0D9F8CF
:1040500000C0DAF80870DCF80C80C8F30A0808F130
:104060000108B84448EA0E084CF80280D9F800204C
:10407000D75827F00707D750D9F80070DAF8102082
:10408000FA509AF831209AF818304FEA022C9AF830
:104090003220120442EA0362D9F800301F59185145
:1040A0009AF8303043EA0C031343D9F80020135137
:1040B000D9F80020535923F0FF035351D9F80020B9
:1040C000DAF814305351D9F800209359029CA343D5
:1040D0009351D9F80030DAE9072422439A51D9F8EC
:1040E000002053585050D9F80020DAF824005050DE
:1040F000DAF81000C8B301283AD004283AD00228D0
:1041000038D0032836D0072834D00120D9F8003021
:10411000B02505EBCB11B42284245D5802EBCB1201
:1041200005F0E0255D50DAE9003504EBCB14EB1A1D
:10413000BAF8285043434543D9F80000DB1C43EA52
:1041400005434350D9F8000081586FF30A018150AC
:10415000D9F80000DAF82C108150D9F80000015984
:1041600041F001010151BDE8FE8FFFE70420CDE7DA
:104170000320CBE70220C9E770B5052518480024C5
:10418000164EEB074FF4C021DA0AC0E90412C0E969
:104190000234C0E90065047644768476C4760477F8
:1041A0004477FDF738F90F4801210E224461C0E938
:1041B0000641046044608460C4600461C0E9081280
:1041C00001460748FCF724FF0548FDF7F1F9BDE873
:1041D000704003480221FCF709BF00000064004062
:1041E000DC000020B0030020294838B5016841F404
:1041F00000110160016801F400110091016841F4AF
:104200008001016000680021224A802300F48000C0
:104210000090214855151415C0E90021836004223F
:10422000C5600323C0E9044100F120048161C1613C
:1042300084E80E00C1620163FDF798FC00220521AD
:104240000C20FEF7B1FB0C20FEF7A0FB002205219D
:104250000D20FEF7A9FB0D20FEF798FB002205219B
:104260000F20FEF7A1FB0F20FEF790FB0022052197
:104270003920FEF799FB3920FEF788FB0022052143
:104280004520FEF791FBBDE838404520FEF77EBB98
:1042900030380240106402401C03002020B100228C
:1042A00002482021FDF72CBE0122F9E7000C024054
:1042B0000449054810B5FCF7EAFD0249491E08709B
:1042C00010BD000011000020FCA40008F0B587B06C
:1042D0001C216846FCF740F812480022104D0221CC
:1042E00004234FF0400C1027E0E8025200F1140EB6
:1042F0008E0280E88C00CF02CD018EE8C4000262FD
:104300000724C0E903C50293CDE90014CDE90341B8
:104310000448059106916946FFF7D8F807B0F0BD4B
:10432000400100A07C0300202DE9F04F87B014214C
:104330006846FCF711F87948016841F01001016006
:10434000016801F010010591016841F0020101606E
:10435000016801F002010591016841F0010101606D
:10436000016801F001010591016841F0400101601F
:10437000016801F040010591016841F4007101609C
:10438000016801F400710591016841F008010160C4
:10439000016801F008010591016841F48061016044
:1043A000016801F480610591016841F48071016048
:1043B000016801F480710591016841F00401016018
:1043C000016801F004010591016841F020010160DC
:1043D000016801F020010591016841F08001016050
:1043E00000680022DFF838A1202100F0800005904D
:1043F0005046FDF785FD41F20E094A480022494624
:10440000FDF77EFDDFF820B1002208215846FDF7B8
:1044100077FD4FF40056454800223146FDF770FD08
:1044200043480022C821FDF76BFD002441480827BE
:1044300069460294CDE90074FDF776FC7010694678
:10444000CDE900043C480294FDF76EFCDFF8EC80F7
:10445000402069460294CDE900085046FDF764FC0F
:104460002020009001256946CDE90154504603946F
:10447000FDF75AFCCDF800906946CDE90154294872
:104480000394FDF751FC2E486946CDE9006402947F
:10449000FDF74AFC00976946CDE90154584603945C
:1044A000FDF742FC10206946CDE900045046029415
:1044B000FDF73AFC48F204006946CDE900041B48C8
:1044C0000294FDF731FC00966946CDE90154174886
:1044D0000394FDF729FCE8026946CDE90004114880
:1044E0000294FDF721FC009669460E48CDE901844F
:1044F000FDF71AFCC8200090CDE901540C4869462C
:104500000394FDF711FC04206946CDE90004084836
:104510000294FDF709FC07B0BDE8F08F3038024087
:10452000000C02400020024000280240001C024013
:104530000018024000100240002402400000121047
:10454000000802400E48002170B501220B4BC0E963
:1045500003214161E02581610A4CC161016280E86B
:104560003800FDF739FF06480021FDF7DEFEBDE803
:10457000704003480021FDF704BF0000005C0040CC
:104580006801002092606000F0B59BB0342168465D
:10459000FBF7E2FE34210DA8FBF7DEFE2A480024DB
:1045A000284D2821092240F21526352340F21B17F9
:1045B00005600B25446040F2352C846040F21D1EDE
:1045C000C4600461143080E8EE5080F8204080F828
:1045D000214080F822401438FEF7AEF806A9009476
:1045E000052601944FF480650294039400220494FC
:1045F000059481E870008DF8304069468DF83140AF
:10460000114809940A940B948DF83240FEF702F891
:1046100013A90D940E9401220F94109411941294E6
:1046200081E870008DF864400DA98DF8654006485A
:104630001694179418948DF86640FDF7EBFF1BB0A5
:10464000F0BD000000680140B40100200A480021CC
:1046500030B4084C0C224FF4E1330460C0E901315E
:10466000C160C0E904128161C1610162416230BC74
:10467000FFF7E6B8001401409C0200200C4901221B
:104680000C4810B500F012FE08B1FCF7FFFB0A4918
:10469000084801F01AFF08B1FCF7F8FB054801F0E3
:1046A00058FF002803D0BDE81040FCF7EFBB10BD59
:1046B0006965000884290020B40000200148FDF746
:1046C000E1BC00005C2D0020FFF7F2FDFFF7D6FFF4
:1046D000012003F04FFFFBE7502010B572B680F3C6
:1046E0001188BFF34F8FBFF36F8F62B605F052FD95
:1046F00018B104494FF080500860002080F3118801
:1047000010BD000004ED00E0F0B5B3B0302121A8E9
:10471000FBF722FE14212DA8FBF71EFE842168461C
:10472000FBF71AFEFEF7A8F92348016841F0805113
:104730000160006800F0805032902048016841F428
:104740004041016000680224012500F4404032909D
:104750006005192129AECDE927402F040A0108235D
:104760002C9386E81600CDE9215721A8FEF712FD0B
:10477000FEF74CF94FF4A0524FF4C0510026CDE99A
:1047800030122DAA0F20062182E851002DA8FEF735
:10479000F9FB0B4805220090C021CDE9072503064F
:1047A00016961B9668461F93CDE90514CDE90A5766
:1047B000FEF76AF933B0F0BD4038024000700040A7
:1047C00008082100104A30B51048146800210F4B2A
:1047D00044F470041460083305680D4A0D4C45F02C
:1047E0000105056019600368051D1340074A036051
:1047F0000C322C600568E305034C25F48025056028
:10480000803C1160236030BD88ED00E0003802403C
:10481000FFFFF6FE103000240148FEF746BF0000FF
:10482000203000200148FEF740BF00005C0200205D
:10483000F0B5274B4FF0804E264D02689842264E29
:10484000264F274C09D0704507D0A84205D0B0426A
:1048500003D0B84201D0A04205D1D1F804C022F063
:1048600070024CEA020298421BD0704519D0A8424F
:1048700017D0B04215D0B84213D0A04211D0194D74
:10488000A8420ED0184DA8420BD0184DA84208D00F
:10489000174DA84205D0174DA84202D0164DA84288
:1048A00003D1CD6822F440722A434D6922F0800280
:1048B0002A43026098428A68C2620A68826201D012
:1048C000A04201D10969016301214161F0BD0000ED
:1048D000000001400004004000080040000C0040BF
:1048E00000040140004001400044014000480140F4
:1048F00000180040001C00400020004090F82410E8
:10490000C90706D00168836A4A6822F400321A4354
:104910004A6090F82410890706D50168C36A4A687E
:1049200022F480321A434A6090F82410490706D5D1
:104930000168036B4A6822F480221A434A6090F8A7
:104940002410090706D50168436B4A6822F4004227
:104950001A434A6090F82410C90606D50168836B93
:104960008A6822F480521A438A6090F824108906DB
:1049700006D50168C36B8A6822F400521A438A6024
:1049800090F82410490611D50168036C4A6822F496
:1049900080121A434A60016CB1F5801F06D101688C
:1049A000436C4A6822F4C0021A434A6090F824100B
:1049B000090606D50168826C486820F4002010437F
:1049C0004860704738B500250446C567FDF79EFA74
:1049D00003462068006800070BD56FF07E4000900A
:1049E000002220464FF4001100F034F908B10320F2
:1049F00038BD2020606784F87050A067002038BD63
:104A00002DE9F04104468068DFF818C2864F23681C
:104A1000D4E90452E16928431E6800250A4383490A
:104A2000104306EA0C0606431E604FF4004220685D
:104A3000E668436823F44053334343602368A66920
:104A4000206AD3F808C030432CF4306606439E60D9
:104A50002068B8420AD1086810F0030052D001283B
:104A60007BD002287AD003286ED186E0704B984222
:104A70000AD1086810F00C0079D004287BD00828EF
:104A800077D00C2860D178E06A4B98420AD1086848
:104A900010F030006BD010286DD0202869D030285D
:104AA00052D16AE0644B98420AD1086810F0C00005
:104AB0005DD040285FD080285BD0C02844D15CE026
:104AC0005E4B98420DD1086810F440704FD0B0F59D
:104AD000807F50D0B0F5007F4BD0B0F5407F33D110
:104AE0004BE0574B98420FD1086810F4406009D052
:104AF000B0F5806F3FD0B0F5006F3AD0B0F5406FA1
:104B000022D13AE0012120E04E4B98420DD10868B5
:104B100010F440502BD0B0F5805F2CD0B0F5005F82
:104B200027D0B0F5405F0FD127E0474B98420BD11B
:104B3000086810F440401AD0B0F5804F1BD0904266
:104B400017D0B0F5404F18D01021E0694FF6EF763E
:104B5000904238D109295DD202E00CE009E006E07C
:104B6000DFE801F00D1027582A5858582D00002171
:104B7000EBE70221E9E70421E7E70821E5E7FEF793
:104B8000B7FA01E0FEF7C4FA0146D4F80400490080
:104B900001EB5001B1FBF0F080B2A0F11001B14285
:104BA00038D84FF6F0732168C0F342021840104322
:104BB00024E026496068EBE7FEF7BAFAE4E76068AC
:104BC0004FF48031E4E7092924D2DFE801F0050839
:104BD00019231C2323231F00FEF78AFA01E0FEF7A6
:104BE00097FA0146D4F8040001EB5001B1FBF0F054
:104BF00080B2A0F11001B1420CD82168C8600AE06F
:104C000013496068F0E7FEF793FAEAE7606802EBA1
:104C10005001EBE701250020206660662846BDE8CC
:104C2000F0810000F369FFEF00100140903802406E
:104C30000044004000480040004C0040005000404C
:104C40000014014000780040007C00400048E8016A
:104C50000024F4002DE9F041984617460E4604461C
:104C6000069D08E0681C06D0FDF750F9A0EB08008F
:104C7000A8420BD855B12068C06936EA000017D0A9
:104C80000020B842EED00020BDE8F081216820204D
:104C900000220B6823F4D0730B6021688B6823F02B
:104CA00001038B606067A067032084F87020EBE746
:104CB0000120E6E700224FF6FF7310B500EB8204F7
:104CC000B4F88043240409D49A4205D000EB820052
:104CD00041F40041C0F88013D0B210BD521CD2B2D2
:104CE0000B2AEBD31A46F7E77FB501AE1C46012528
:104CF0000023009586E80E0002232A46214600F094
:104D000010FC04B0002070BD7FB51D4690F81D3327
:104D1000089C03B100240123CDE90031CDE9022430
:104D200002232946002200F0FCFB04B0002070BDE5
:104D300010B500F0EFFA002010BD30B48278012ADF
:104D400007D1002202240474012343744282818229
:104D5000C282002230BC114600F00FB87FB501AE10
:104D60001C4601250023009586E80E002A462146B0
:104D700000F0D7FB04B0002070BD70B501260446DA
:104D800080780B463546012802D002281ED10DE05E
:104D9000A3600220A281032126760022A070C4F81D
:104DA000D413D4F8CC0303F04FFC0FE0204600F0FE
:104DB0000FF905004FF0000004D0032D02D0022DA2
:104DC00003D003E0A670207600E0A670284670BDF0
:104DD0007FB51D4690F81D33089C03B100240123C4
:104DE000CDE9003100232946CDE902241A4600F01E
:104DF00098FB04B0002070BD1FB5002314460822A4
:104E0000CDE90031CDE902231A46214600F089FBA5
:104E100004B0002010BDFCF71BBF70B500F54D7449
:104E2000002000EB800505EBC00504EB4505EE7B9B
:104E30000A358E4201D0FF2909D1AE79964201D0C0
:104E4000FF2A04D1ED799D4206D0FF2B04D0401CEF
:104E5000C0B20228E5D3FF2070BD0B2907D200EBBA
:104E60008100B0F88013C1F30E01C0F88013002058
:104E70007047F0B48578049C012D0FD141F0800675
:104E800006740625428203214574B1EB122F02D12C
:104E900040F2094100E000218182C4822246F0BC38
:104EA0001946FFF76ABF0A8803781A440A80017816
:104EB00008447047F8B500F11C050E464FF4007227
:104EC00004462B4600910021FFF7D3FF070005D1D0
:104ED00004F54D703246294601F08BF93846F8BD8D
:104EE000F8B500F58E730D464FF4807204460091BC
:104EF0000021FFF7BEFF002839D194F81C21082DAE
:104F000094F81D6194F8203194F8211184F822233B
:104F100094F8222184F8236394F82361B4F81E7175
:104F200084F8263384F8271384F82823A4F82473FC
:104F300084F829631BD9B4F8245194F82A1194F801
:104F40002B2194F82C31A4F82A5394F82D51B4F85D
:104F50002661A4F82C63B4F8286184F8301384F82F
:104F6000312384F83233A4F82E6384F83353F8BD28
:104F7000F8B51C46164641F44072009300F58E7356
:104F800000211D46FFF775FF002814D16978032919
:104F900011D129788A1EA24200D814460021A2B25B
:104FA000AD1C04E06B5C891C89B206F8013B9142A0
:104FB000F8D300213170F8BD01004FF0000004D09B
:104FC000012901D0022901D0022070470120704739
:104FD0002DE9F84F0446007E0B274FF0010803250A
:104FE00046460C284FF009094FF0070A4FF00D0B09
:104FF00019D2DFE800F0C5060E2E3A4854717D8EB6
:105000009AAF627904F110012046FFF7F5FE022005
:1050100029E06179204600F0FAF9012804D004283B
:1050200071D002286FD0ABE0207CE18A00F08000D4
:1050300031B1802802D00520207605E0257603E0F6
:10504000802803D084F818A0294679E084F81890C5
:10505000FAE7D4F8BC03E08120462379A289A1684D
:10506000FFF77CFE042020768AE02179204600F0BC
:10507000CEF9012861D0052802D1032629465FE038
:10508000042865D07CE0CDF8008020466379A289B1
:10509000A168FFF79DFED4F8BC03062125E06179E5
:1050A000204600F0B4F9012806D0052808D00228CF
:1050B0000AD004280CD063E0294684F818A03FE009
:1050C0000C202946032601E005202946207637E0FA
:1050D00002262946277633E000222379114620460E
:1050E000FFF73CFED4F8BC0308212176E08147E0BD
:1050F0002179204600F08BF9012805D0042827D01B
:105100000528BAD03CE023E00026294684F818B0F0
:1051100016E00022CDF80080637911462046FFF7A3
:1051200057FED4F8BC030A21DFE76179204600F07E
:105130006EF90128E8D00228A2D1294684F81890F7
:10514000C4F8D4130022D4F8CC0303F07DFA17E09E
:105150002946BFE7607E401CC0B26076022807D8AF
:10516000204600F0D5F984F8188084F8028007E022
:10517000D4F8C823062120469047002060760226F6
:105180003046BDE8F88F2DE9FE43044640780026FE
:105190004FF0010805254746082804F58E7246D2CF
:1051A000DFE800F004171F464E56626E08212046C5
:1051B000FFF796FE002876D194F81D1394F8290382
:1051C000A07184F801800091CDE9016094F81C334E
:1051D0001BE012212046FFF783FE002863D1022046
:1051E0002CE00121204601F08AF900285BD1022041
:1051F000FFF711FEA079032294F81D13434684F8AB
:105200001C836270CDE9001602908022217920462D
:1052100000F0E5FFA179002294F81D03CDE9000616
:105220000291204694F81C33617900F0D8FF3AE0EF
:1052300009212046FFF73EFE08BB0420607032E0E3
:10524000B4F836132046FFF735FEC0B965702AE082
:1052500094F83013062621B1FF232046FFF788FE7D
:1052600068B92946667017E094F8311307260029BB
:10527000F7D0FF232046FFF77BFE00B9667012E0EF
:1052800094F8321331B1FF232046FFF771FE50B975
:10529000002708E000272946C4F8D4130022D4F8D8
:1052A000CC0303F0D1F93846BDE8FE8330B50400E5
:1052B0000D468BB029D084F8C0230020C4F87803B1
:1052C000C4F87C032046FBF765FD0DB1C4F8C85354
:1052D00007AD0F4B0FCB85E80F00002107A803F0A7
:1052E00055F90B491C22C4F8CC0368461031FBF772
:1052F0001AF82146684603F05DFAC4F8D003204648
:1053000000F098F800200BB030BD0220FBE7000051
:10531000F8C4000810B5D0F8C403FCF718FEBDE8C7
:105320001040FFF749BE70B504460078012520B152
:1053300094F81F03012809D00AE0D4F8C82384F8A0
:105340001E532AB104212046904701E0022020701C
:10535000C4F8D4530022D4F8CC03294603F074F9DE
:10536000002070BD10B5044600F0D2F82179204627
:10537000FFF773FD61792046FFF76FFDD4F8C8236E
:10538000002084F81E0312B10521204690472046D4
:1053900000F0B5F8012103202070C4F8D4130022D6
:1053A000D4F8CC0303F050F9002010BD10B590F8EC
:1053B000C003012802D10846FEF770FFC820FCF7A1
:1053C00047FC002010BDD0F8C403FCF7BABD10B5EF
:1053D000D0F8C4030124FCF7AAFD20B1012805D0B0
:1053E000022803D101E0002400E00224204610BD81
:1053F000D0F8C40301EB810100EBC10090F83B1031
:1054000011B190F85000704790F851007047D0F8F3
:10541000C403FCF78FBDD0F8BC13491CC0F8BC1303
:1054200001780B2905D1D0F87813002901D08969BA
:105430000847704770B5044690F8C00301281CD196
:105440000F4800214FF0A04608230325C0F8C042B2
:105450000222C4F8C40306608360C0E90351C0E9B6
:105460000621FCF7A8FE08B1FBF710FD0448FCF785
:105470005BFD0146204600F02FF8002070BD0000C3
:105480005C2D002010B50121C0F8D413D0F8CC0356
:10549000002203F0D9F8002010BDFEB508AF97E850
:1054A00070008DE87000D0F8C403FCF762FDBDE821
:1054B000FE40FFF781BD002180F81F1370470121D6
:1054C00080F81F13704710B5D0F8C403FCF7FEFE38
:1054D000BDE81040FFF770BDC0F8BC137047D0F8AE
:1054E000C40301EB810100EBC10090F83B1011B146
:1054F00080F8502001E080F851200020704710B55E
:10550000D0F8C403FCF7E9FEBDE81040FFF754BD36
:1055100010B5D0F8C403FCF7F6FEBDE81040FFF765
:105520004BBD2DE9FF410DF1280898E8F0008DE80A
:10553000F000D0F8C403FCF75BFD04B0BDE8F04117
:10554000FFF73ABD0346D0F87803C1694FF0020077
:105550002AB1012A05D189791846FFF7EEBBC9792E
:10556000FAE77047D0F878030121064B044AC06976
:10557000C0E9152380F8501080F8521000207047C1
:1055800055534243504030202DE9F84F0546D0F89E
:10559000780302264FF0010847464FF00B0B4FF0FF
:1055A000090A4FF00709C46994F850000C2814D276
:1055B000DFE800F0F50614323B5C699AA3C8D0EE30
:1055C00084F861101F2284F8506004F15401CDF872
:1055D000008028466379FFF797FBE0E06179284671
:1055E000FFF715FF012802D002280ED011E0E06D70
:1055F000002873D094F86000000601D5032000E075
:10560000052084F8500031464AE0314684F8508045
:1056100046E0052865D0C2E0237928466289D4F89F
:105620008C10FFF761FB04202AE021792846FFF760
:10563000EEFE012867D16289E06D90420CD9D4F862
:105640008C10801A1144C4F88C10E06506D02379C0
:105650002846FFF749FBA2E00020E065314684F8C8
:1056600050901DE0314684F850A019E0CDF800803C
:10567000284663792289D4F88C10FFF745FB062071
:1056800084F850008BE061792846FFF7C0FE0128BE
:105690000ED00228BDD15FF00500314684F85000DD
:1056A0000022C5F8D413D5F8CC0302F0CDFF76E084
:1056B0002289E06D90420FD9D4F88C10801A1144E1
:1056C000C4F88C10E06509D0CDF8008028466379D5
:1056D000FFF71AFB97E701E00020E06584F850909F
:1056E00091E70A203146D9E723790D2204F17801A8
:1056F0002846FFF7F9FA0820C2E721792846FFF784
:1057000086FE012802D00528ACD048E084F85080FD
:10571000284684F85280D5F87813CC692179FFF7B0
:1057200052FE0D280AD11F49A06F884206D1A16DF3
:10573000E06F884202D194F8840008B1022762E742
:10574000002760E700222846FFF7FCFE38B984F8FE
:10575000509024E001222846FFF7F4FE10B10428FF
:1057600013D01CE061792846FFF742FEC0F101002A
:105770006179C2B22846FFF7B2FE2179002228469D
:10578000FFF7ADFE84F850A009E084F850B006E0C1
:10579000284600F017F8070001D184F850803846F9
:1057A000BDE8F88F5553425330B4A1250574FE244B
:1057B000447400220123C382428282821A4630BC92
:1057C000FFF7DBBA212303740021FF2242744182D8
:1057D0000A468182C182FFF7D0BA70B5D0F878133B
:1057E0000125CC69A17B21B1022902D003292ED148
:1057F00027E02146FFF7D8FF032805464FF00001B8
:1058000001D01DB123E00025216004E020680228BA
:1058100001D9022001E02078401C206000200223F2
:105820000BE000EB800202EBC002401C04EB8202A2
:10583000C0B282F8923082F8C11022688242F0D859
:1058400005E00021FFF779FA08B9E07BA07328464C
:1058500070BD10B504781346D0F878230B2CD069AE
:1058600001D0022010BD01EB810202EBC101342204
:1058700000EB810118469031FAF755FD002010BD6C
:1058800070B50546D0F878030026C469617939B14E
:105890002846FFF74DFA61792846FFF7DEFA667170
:1058A000217939B12846FFF743FA21792846FFF7D5
:1058B000D4FA2671D5F87803C06920B102F0ECFB68
:1058C000D5F87803C661002070BDFEB50546D0F856
:1058D000780302245023062201792846FFF79DFA17
:1058E000FF2801467DD0284600F0FEFDE00102F0D1
:1058F000E1FDD5F878130446C86195F8200300EB64
:10590000800101EBC00005EB400090F84A0301065E
:105910000CD5E07195F8200300EB800101EBC0008D
:1059200005EB4000B0F84C0360810BE0A07195F8E6
:10593000200300EB800101EBC00005EB4000B0F854
:105940004C03208195F8200300EB800101EBC0009F
:1059500005EB400090F8520301060CD5E07195F874
:10596000200300EB800101EBC00005EB4000B0F824
:10597000540360810BE0A07195F8200300EB8001D7
:1059800001EBC00005EB4000B0F85403208100207B
:10599000A4F8F800A4F8FA0020736073A0732846F6
:1059A000A179FFF787F960712846E179FFF782F95D
:1059B00020712846FFF7D6FD682104F19000FAF720
:1059C000CBFC2089022695F81D130091CDE90160DA
:1059D00095F81C332846A279617900F000FC6189B2
:1059E00000E016E095F81D03CDE900060291284677
:1059F00095F81C33E279217900F0F1FB217900223E
:105A00002846FFF76CFD617900222846FFF767FD05
:105A100000242046FEBD2DE9F05F0646D0F878034D
:105A20004FF0010BC469207B10B1012879D13AE114
:105A3000B4F8F800012521684FF004094FF0000880
:105A400088426FD200EB80014FF0050A01EBC000E5
:105A5000022704EB800080F89150B4F8F80000EBC6
:105A6000800101EBC00104EB810292F8901009293A
:105A70000CD2DFE801F005DD1E880CB1DDDDDA00B7
:105A800082F89090D6F8BC03C4F8FC00D0E0C1B214
:105A900030469F3200F0A8F940B9B4F8F80000EBA6
:105AA000800101EBC00004EB8000B7E002287ED04B
:105AB0009AE0C1B2304600F0CDFA10B1022832D0DF
:105AC00092E0B4F8F80000EB800101EBC00004EBB9
:105AD000800090F8921011B180F8C15001E080F878
